:020000040800F2
:10000000300C002029020008CD0800083F08000835
:10001000C908000877040008B91A000800000000A9
:10002000000000000000000000000000751500083E
:100030005907000800000000810D0008891600081B
:10004000430200084302000843020008430200087C
:10005000430200084302000843020008430200086C
:10006000430200084302000843020008430200085C
:10007000430200084302000843020008430200084C
:10008000430200084302000843020008430200083C
:10009000430200084302000843020008430200082C
:1000A000430200084302000843020008430200081C
:1000B00043020008F5160008311700084302000843
:1000C00043020008430200084302000843020008FC
:1000D0004302000891190008191A00084302000899
:1000E00043020008790E000843020008430200089A
:1000F00043020008430200084302000843020008CC
:1001000043020008430200084302000843020008BB
:1001100043020008430200084302000843020008AB
:100120007D0400084302000843020008430200085F
:10013000430200084302000843020008430200088B
:10014000430200084302000843020008430200087B
:10015000430200084302000843020008430200086B
:10016000430200084302000843020008430200085B
:10017000430200084302000843020008430200084B
:10018000430200084302000800F002F800F03CF8C7
:100190000AA090E8000C82448344AAF10107DA45E2
:1001A00001D100F031F8AFF2090EBAE80F0013F0F8
:1001B000010F18BFFB1A43F001031847A0320000DB
:1001C000C0320000103A24BF78C878C1FAD852076C
:1001D00024BF30C830C144BF04680C6070470000C1
:1001E0000023002400250026103A28BF78C1FBD840
:1001F000520728BF30C148BF0B6070471FB501F0E0
:1002000048FD1FBD10B510BD00F038F81146FFF7CE
:10021000F5FF01F0B5FC00F056F803B4FFF7F2FF6C
:1002200003BC01F04BFC0000094880470948004727
:10023000FEE7FEE7FEE7FEE7FEE7FEE7FEE7FEE796
:10024000FEE7FEE704480549054A064B70470000F3
:100250008D1600088901000830060020300C0020AF
:100260003008002030080020704770477047704702
:100270007047000000487047D00500207546FFF722
:10028000F9FFAE4605006946534620F00700854653
:1002900018B020B5FFF7D6FFBDE820404FF00006AC
:1002A0004FF000074FF000084FF0000B21F007015E
:1002B000AC46ACE8C009ACE8C009ACE8C009ACE8A1
:1002C000C0098D46704710B50446AFF30080204644
:1002D000BDE81040FFF7A1BF21B1826842F00102E2
:1002E000826003E0826822F00102826070470000B1
:1002F0000021084A1168084A1140D0E900231A4336
:1003000083681A43C3681A431143044AC2F80413AA
:100310007047000004230140E030FCFF0020014052
:1003200021B1826842F48072826003E0826822F424
:1003300080728260704721B1826842F400728260EC
:1003400003E0826822F400728260704730B5024692
:10035000002000235068104C20400D790C6844EABE
:1003600005242043506090680C4C2040D1E9035490
:100370002C438D682C434D7944EA4504204390601A
:10038000D06A20F470000C7D641EE4B2234340EA7E
:100390000350D06230BD0000FFFEFFFCFDF7FFC040
:1003A000F0B504460D4600200021092D11DDE0685E
:1003B000A5F10A0606EB4607072606FA07F1884369
:1003C000A5F10A0606EB460603FA06F10843E060CB
:1003D0000CE0206905EB4507072606FA07F188437C
:1003E00005EB450603FA06F108432061072A0FDAF8
:1003F000606B561E06EB86071F2606FA07F1884338
:10040000561E06EB860605FA06F10843606322E0F5
:100410000D2A0FDA206BD61F06EB86071F2606FA79
:1004200007F18843D61F06EB860605FA06F1084356
:10043000206310E0E06AA2F10D0606EB86071F2696
:1004400006FA07F18843A2F10D0606EB860605FAC7
:1004500006F10843E062F0BD816841F080418160AF
:10046000704700210160017141718160C1600161CB
:1004700001210175704700BFFEE7000010B5074974
:10048000074800F0EDF818B100210648FFF724FFF7
:100490000249034800F008F810BD00002080001059
:1004A00010640240002001400246094B9A4201D2EA
:1004B000084801E00648103801F000531BB1064B14
:1004C0000B40C36002E0044B0B40836070470000A8
:1004D00010640240006002407D0F7D0F21B1026870
:1004E00042F00102026003E0026822F001020260B1
:1004F00070470000016821F00101016000210160E6
:1005000041608160C1600161212141614A498842A5
:1005100004D13D21484A103A91608CE04649183197
:10052000884205D14FF47461434A103A916082E0E9
:1005300041493031884205D14FF474113E4A103A96
:10054000916078E03C494831884205D14FF07461B0
:10055000394A103A91606EE037496031884204D1DF
:100560003649354A103AD16065E0334978318842DE
:1005700004D13349304A103AD1605CE02E499031C1
:10058000884204D12F492C4A103AD16053E02A49BD
:10059000A831884205D14FF03D51274A103AD16029
:1005A00049E02949884204D13D21274A083A11608F
:1005B00041E025491831884205D14FF47461224A3F
:1005C000083A116037E020493031884205D14FF4B4
:1005D00074111D4A083A11602DE01B4948318842C8
:1005E00005D14FF07461184A083A116023E01649AA
:1005F0006031884204D11149134A121F11601AE078
:1006000011497831884204D10D490F4A121F1160F7
:1006100011E00D499031884204D10A490A4A121F5B
:10062000116008E00849A831884204D14FF03D51DB
:10063000054A121F11607047106002403D00002003
:10064000400F002000003D201064024001460020C1
:100650000A6802F001020AB1012000E000207047A0
:1006600070B50246002000240025124EB24201D28D
:10067000114B01E00F4B103B104E0E4036B11E26C1
:1006800006EAD124166806EA040502E0566906F077
:10069000800501F000560EB15C6800E01C68084E51
:1006A000344004EA010616B10DB1012000E000203B
:1006B00070BD000010640240006002403C0F3C0F1F
:1006C0007D0F7D0F10B501F080034BB122B143695E
:1006D00043F08003436103E0436923F080034361F7
:1006E00080290BD02AB1036801F01E042343036064
:1006F00004E0036801F01E04A343036010BD000082
:1007000010B500220268134B1A40CC680B682343D3
:100710004C6923438C692343CC6923430C6A2343EC
:100720004C6A23438C6A23434C6B23438C6B2343D7
:100730001A430260426922F00702D1E90B342343D5
:100740001A4342610B6943604B6883608B68C360E6
:1007500010BD00003F801CF0704700000149086098
:1007600070470000143C0140F0B50A460021002308
:10077000002400BF3DE0012505FA01F3156805EAF4
:1007800003049C4234D105684F000326BE40B543A4
:10079000056015794E00B54006683543056015794A
:1007A000012D02D01579022D16D185684F00032640
:1007B000BE40B543856055794E00B54086683543E7
:1007C0008560456801268E40B54345604568967949
:1007D0008E40B6B235434560C5684F000326BE4023
:1007E000B543C560D5794E00B540C6683543C56090
:1007F000491C1029BFD3F0BDF0B5002300244D07DC
:10080000ED0E02FA05F3CE1000F1200555F8265042
:100810004E07F70E0F26BE40B543CF1000F120065D
:1008200046F82750CE1000F1200555F8265045EA2D
:100830000304CE1000F1200545F82640F0BD00BFAE
:10084000FEE7000038B51B4801F031F904460D2CD5
:1008500003D10120184908702BE0174800780128BF
:1008600010D10A2C05D115490870002012490870D2
:100870001FE002201149087000200F49087010493C
:10088000087016E00E490878411C0D4B19700D498F
:100890000C540120E2B2194600900978C906080EEE
:1008A0000C23002100F070F905480078401C044931
:1008B000087038BD00440040020000200100002004
:1008C000000000201800002000BFFEE77047000075
:1008D00070B5002100230F22C4781CB3174C246884
:1008E00004F4E064C4F5E064C4F30721C1F1040436
:1008F000E3B20A4144789C40E1B284781440214339
:100900000C07210E0E4C05786155047804F01F0584
:100910000124AC4005786D11AD0005F1E025C5F866
:10092000004109E0047804F01F050124AC40054DA6
:100930000678761145F8264070BD00000CED00E009
:1009400000E400E080E100E002490143024A116056
:10095000704700000000FA050CED00E000200CE0FC
:10096000002106E00022064B03EBC1031A544A1C87
:10097000D1B28029F6DB421CD0B20828F0DB7047E8
:10098000D0010020F0B5144600267F2801DC3F2965
:1009900000DDF0BD0B46CF1701EB5777FF10C7F115
:1009A0000707FAB2CF1701EB5777FF10A1EBC70784
:1009B000FDB2C5F107070123BB40DEB24CB10A4BC3
:1009C00003EBC0039B5C3343074F07EBC007BB54EB
:1009D00008E0054B03EBC0039B5CB343024F07EBFE
:1009E000C007BB5400BFD4E7D00100201CB54FF4B2
:1009F0000040009001208DF8040000208DF80600D2
:100A000001208DF8070002208DF805000121042047
:100A100000F0B8F969464448FFF7A6FE012102201C
:100A200000F0B0F94FF46040009069463F48FFF78E
:100A30009BFE01203E4908603E49C1F8BC023C498A
:100A40000839086000203C49C1F8B802642001F070
:100A500055F801203649091F08600021AE2000F03A
:100A600063F90021D52000F05FF90021802000F01B
:100A70005BF90021A82000F057F900213F2000F089
:100A800053F90021D32000F04FF90021084600F06F
:100A90004BF90021402000F047F900218D2000F0A3
:100AA00043F90021142000F03FF90021202000F03C
:100AB0003BF90021022000F037F90021A12000F0CD
:100AC00033F90021C02000F02FF90021DA2000F0D6
:100AD0002BF90021122000F027F90021812000F0DD
:100AE00023F90021EF2000F01FF90021D92000F0A8
:100AF0001BF90021F12000F017F90021DB2000F0A4
:100B000013F90021302000F00FF90021A42000F09B
:100B10000BF90021A62000F007F90021AF2000F01A
:100B200003F9FFF71BFF1CBD000802400004024050
:100B3000BC824042000041420080404230B5002467
:100B40001CE004F1B001C8B2002100F0EDF8002172
:100B5000084600F0E9F80021102000F0E5F8002533
:100B600008E0084901EBC501085D012100F0DCF84F
:100B7000681CC5B2802DF4DB601CC4B2082CE0DB1D
:100B800030BD0000D00100202DE9F84F80460F460F
:100B900016461C46BA462046E31704EB5373DB1097
:100BA00021464FEAE47C04EB5C7C4FEAEC0CA4EBBE
:100BB000CC0CBCF1000F02D04FF0010C01E04FF063
:100BC000000C6344224604EBD27C4FEA6C0C03FB1E
:100BD0000CF303F0FF0BA6F12000C6B200254EE097
:100BE0000C2C07D106EB4600274901EB8000405D45
:100BF000009013E0102C05D1244800EB0610405D56
:100C000000900BE0182C07D106EBC600204901EB41
:100C10008000405D009001E0BDE8F88F4FF00009D2
:100C200027E0009800F0800028B1394640460A9A33
:100C3000FFF7A8FE09E00A9808B9012000E00020AB
:100C4000024639464046FFF79DFE00984006000EDA
:100C50000090781CC7B2A7EB0A00A04205D1574606
:100C600008F1010000F0FF0806E009F1010000F0C2
:100C7000FF09B9F1080FD4DB00BF681CC5B25D45A0
:100C8000AEDB00BFC8E700009C1C00081021000874
:100C9000002700082DE9FF4F81B0074691461E4608
:100CA0000E9D4FF0000A002439E0301B401EC1B2F7
:100CB0000A2000F0E3FFB9FBF0F00A21B0FBF1F2EB
:100CC00001FB1208BAF1000F16D1701EA04213DD0D
:100CD000B8F1000F0ED10120AB4605EBDB714910D6
:100CE00001FB04710090C8B22B4620220299FFF745
:100CF0004BFF12E04FF0010A0120AB4605EBDB7120
:100D0000491001FB04710090C8B208F13001CAB269
:100D10002B460299FFF738FF00BF601CC4B2B442F3
:100D2000C3DB05B0BDE8F08F10B5104B1960002291
:100D300015E000230E4C236000F0800323B1012353
:100D40000A4C0834236003E00023084C0834236075
:100D50000123074C23604306180E531CDAB2082AFD
:100D6000E7DB0123014C236010BD0000B482404248
:100D7000BC024142014908627047000000000E4277
:100D80007047000029B1064A12680243044B1A60FA
:100D900004E0034A12688243014B1A607047000066
:100DA0003038024029B1064A12680243044B1A60E7
:100DB00004E0034A12688243014B1A607047000046
:100DC0004038024029B1064A12680243044B1A60B7
:100DD00004E0034A12688243014B1A607047000026
:100DE0004438024010B501460022002300204A1179
:100DF000012A02D10A4C236808E0022A03D1084CD8
:100E00007034236802E0064C7434236801F01F023A
:100E1000012494401C400CB1012000E0002010BDD2
:100E2000003802400149086070470000800E4742C8
:100E300001490860704700003C0E4742002100F461
:100E40004072B2F5407F08D1094A116821F4F811C7
:100E5000084A02401143064A1160054A6832126886
:100E6000C0F30B031A43024B68331A60704700004B
:100E700008380240FFFCFF0F10B54FF4805000F01F
:100E80007BF848B1012000F0CBF80446A0474FF4AE
:100E9000805000F02FF80EE04FF4005000F06CF896
:100EA00048B1022000F0BCF80446A0474FF480503F
:100EB00000F020F800BF4FF40030FFF74FFC10BDEA
:100EC000014600BF080900EB8000420001F00F005E
:100ED0001044C0B270470146002204E0501CC2B268
:100EE000A1F10A00C1B20A29F8DA100741EA10603C
:100EF00070470000002101098AB242F08002044BD1
:100F00001B6803F0800363EA0202014B1A6070471A
:100F10000C28004008B50022009200200021104A51
:100F2000126802F04002CAB9421E0D4B1A6000BF9F
:100F30000B4A126802F04001009A521C0092009A7B
:100F4000B2F5803F01D00029F2D0054A126802F0C4
:100F500040020AB1012002E0002000E0012008BDAB
:100F60000C2800400348006820F080000149086018
:100F7000704700000C28004030B5014600200022D8
:100F800000230D4C246804F004020B4C383C246808
:100F90000C4002EAD1352C4302EA114544EA05032C
:100FA000054C343C246804EA11121BB194B20CB114
:100FB000012000E0002030BD4028004030B504464C
:100FC0000025CA201549086053200860FFF7A2FFDA
:100FD00000B91DE011481C38006820F040000F499E
:100FE0001C39086008460068216808430B491C3911
:100FF00008600A491439A068086008460068A1889A
:1010000040EA0140054914390860FFF7ABFF0125AC
:10101000FF2002490860284630BD00002428004017
:1010200008B501460020009004480090009800EBAD
:10103000810000900098006808BD00005028004022
:101040002DE9F04105460C46002600274DB9607891
:1010500000F01000102804D1607820F010000A3051
:10106000607005B908E06078FFF72AFF0646A078AF
:10107000FFF726FF064600BF55B1E078000461780F
:1010800040EA0120A1780843217840EA413611E086
:10109000E078FFF720FF4FEA00486078FFF71BFF7A
:1010A00048EA0028A078FFF716FF48EA00082078F1
:1010B00048EA4036CA201249086053200860FFF70A
:1010C00029FF08B9002714E00E4830400C492039A8
:1010D0000860FFF747FF0A481C38006800F020004E
:1010E00030B900F079F808B9002702E0012700E0E4
:1010F0000127FF20024908603846BDE8F081000062
:10110000242800403FFFFF002DE9F04105460C4632
:10111000002600274DB92E48006800F0400000B1BD
:1011200002E00020E07000BF0DE02948006800F0F8
:10113000400020B12078FFF7C3FE064602E0002001
:10114000E07000BF00BF55B120780004617840EA2C
:101150000120A1780843E17840EA014611E02078B7
:10116000FFF7B9FE4FEA00486078FFF7B4FE48EA9F
:101170000028A078FFF7AFFE48EA0008E07848EAC8
:101180000046CA2012491C31086053200860FFF74E
:10119000C1FE08B9002713E00E4830400C49083959
:1011A0000860FFF7DFFE0A48006800F0200030B951
:1011B00000F012F808B9002702E0012700E001273B
:1011C000FF2003491C3108603846BDE8F08100006B
:1011D000082800407F7F7F0008B500220092002091
:1011E0000021CA22134B1A6053221A60114A183A7E
:1011F000126822F0A0020F4B183B1A6000BF0D4A84
:10120000183A126802F02001009A521C0092009ACB
:10121000B2F5003F01D00029F1D0064A183A126811
:1012200002F020020AB1012000E00020FF22014B61
:101230001A6008BD2428004008B500220092044A24
:101240000092009A02EB80020092009A116008BDA1
:10125000502800400EB501210807FFF7A3FD01202B
:10126000FFF788FD0120FFF7DDFD00BF6120FFF7DC
:10127000B9FD0028FAD04FF40070FFF7DFFD012020
:10128000FFF7D6FDFFF7A8FF7F200190FF20029017
:10129000002000906846FFF791FE0EBD70B5044631
:1012A0000D4616461CB121460020FFF72DFF1DB14B
:1012B00029460020FFF7C4FE31460020FFF7BCFF9F
:1012C00070BD000000B58BB001210802FFF77AFD68
:1012D0000020099007904FF4803008904FF4A060F0
:1012E0000A9007A8FFF704F801A8FFF7BAF8002052
:1012F000019001208DF809008DF80800002005906C
:10130000039002208DF8180001A90E48FFF71EF87F
:101310000323012200210B48FFF742F80323022296
:1013200001210848FFF73CF801210648FFF703F8C0
:1013300001210448FEF7F4FF01210248FEF7CCFF2B
:101340000BB000BD0020014000B591B0012188051F
:10135000FFF718FD2748FFF7CDF800BF2548FFF736
:1013600075F90028FAD124480390002007901090C6
:10137000224804904FF48060089000200F90059060
:10138000642006904FF40060099080000A9040119C
:101390000B9000020C9000200D9001200E90002078
:1013A000029002A91348FFF7ABF900BF1148FFF7FD
:1013B0004DF90028FAD1012210210E48FFF782F9D9
:1013C0004FF44070FFF7C0FA38208DF80400012078
:1013D0008DF8070002208DF8050000208DF806002A
:1013E00001A8FFF775FA01210248FFF777F811B05D
:1013F00000BD0000106402404C200140400000206D
:101400001CB500BF032000908DF8040000208DF86B
:10141000070001210846FFF7B5FC69460448FFF7BD
:10142000A3F900BFFFF790FFFFF74CFF1CBD0000C2
:101430000000024000B591B060200F9002208DF8AE
:10144000400000208DF8420001208DF8430002206A
:101450008DF841000121FFF795FC0FA94248FFF7E5
:1014600083F9022205214048FFF7C6F9022206212E
:101470003D48FFF7C1F901210220FFF793FC01214C
:101480000420FFF78FFC0020ADF83800ADF83200E3
:101490004FF4FA600D905320ADF830000CA933489A
:1014A00000F034FA0CA9324800F030FA6020ADF8B0
:1014B0001C000020ADF828000120ADF81E0007A98F
:1014C0002B4800F077F90821294800F0B1F90121F3
:1014D000274800F04BF94FF47A71254800F011FAD3
:1014E0006020ADF808000020ADF814000120ADF830
:1014F0000A0002A91D4800F0A5F908211B4800F0C8
:10150000F3F90121194800F031F94FF47A711748C5
:1015100000F0F9F901221146144800F042F90122C5
:101520001146134800F03DF91D208DF804000120FC
:101530008DF8070002208DF8050000208DF80600C8
:1015400001A8FFF7C5F91E208DF8000001208DF8D5
:10155000030002208DF8010000208DF8020068468B
:10156000FFF7B6F911B000BD0004024000040040CE
:1015700000080040704700000CB50020019000906A
:101580003348006840F480303149086000BF30487B
:10159000006800F4003000900198401C0190009811
:1015A00018B90198B0F5A04FF1D12948006800F4AE
:1015B000003010B10120009001E000200090009860
:1015C000012844D122484030006840F08050204932
:1015D000403108601F48006840F440401D490860E1
:1015E0001B48083000681A4908310860084600683E
:1015F00008600846006840F4805008601648091FDB
:101600000860081F006840F08070091F086000BF74
:101610000F48006800F000700028F9D040F2027016
:101620000E4908600A480830006820F003000849A5
:10163000083108600846006840F00200086000BFFA
:1016400003480830006800F00C000828F8D10CBDF1
:10165000003802400070004019544107003C02402D
:10166000042808D14FF0E021096941F004014FF04E
:10167000E022116107E04FF0E021096921F0040147
:101680004FF0E022116170477047000010B5154817
:10169000006840F47000134908601348006840F087
:1016A00001001149086000200F49083108600E4808
:1016B00000680E4908400C4908600D48091D086083
:1016C000081F006820F48020091F086000200649D8
:1016D0000C310860FFF750FF4FF00060014980397E
:1016E000086010BD88ED00E000380240FFFFF6FE04
:1016F0001030002410B50B480088401C09490880B0
:101700000846008808490988884206D10021074810
:1017100000F03BF80020034908800121034800F055
:1017200031F810BD04000020060000200004004035
:1017300010B50B480088401C0949088008460088FD
:1017400008490988884206D10021074800F01DF8A1
:101750000020034908800121034800F013F810BD60
:10176000080000200A0000200008004021B1028883
:1017700042F08002028004E002884FF67F731A4034
:1017800002807047CA430282704721B1028842F04A
:101790000102028004E002884FF6FE731A400280C4
:1017A00070471AB183890B43838102E083898B439D
:1017B0008381704770B5002400220023058C4FF60A
:1017C000FE7635400584028C8388048B4FF68F7536
:1017D0002C40B51E2C400D882C43751E2A408D8947
:1017E0002A434D882A43104DA84202D00F4DA842EB
:1017F00013D14FF6F7752A40CD892A434FF6FB7572
:101800002A408D882A434FF6FF652B404FF6FF553F
:101810002B400D8A2B434D8A2B43838004838D6894
:101820004563028470BD00000000014000040140D7
:101830000A460021018B4FF6F773194011430183CB
:101840007047000070B5002400220023058C4FF67D
:10185000EF7635400584028C8388048B48F6FF754B
:101860002C404FF6FF452C400D884FF6FF7606EAD8
:1018700005252C434FF6DF752A408D8906EA0515AC
:101880002A434D8806EA05152A43154DA84202D081
:10189000144DA8421DD14FF67F752A40CD894FF6D1
:1018A000FF7606EA05152A434FF6BF752A408D8854
:1018B00006EA05152A434FF6FF352B404FF2FF7518
:1018C0002B400D8A06EA85052B434D8A06EA8505DD
:1018D0002B43838004838D688563028470BD000080
:1018E00000000140000401400A460021018B4FF234
:1018F000FF7319404FF6FF7303EA02231943018374
:10190000704741637047816370470000002202887E
:10191000184B98420ED0184B98420BD0B0F1804F24
:1019200008D0164B984205D0154B984202D0154B63
:10193000984204D14FF68F731A404B881A43124BCA
:10194000984207D0114B984204D04FF6FF431A40FB
:101950000B891A4302804B68C3620B880385054BD1
:10196000984202D0044B984201D18B7A038601231E
:1019700083827047000001400004014000040040E1
:1019800000080040000C004000100040001400401F
:1019900010B540F225511D4800F05FF810B31B4808
:1019A00000F085F8C4B21A48008800F40040C8B9B5
:1019B0001748008800F4804060B10A2C03D0002052
:1019C0001349088020E01248008840F40040104984
:1019D000088019E00D2C06D10D48008840F48040A5
:1019E0000B49088010E00A480088C0F30D0009493F
:1019F0000C5407480088401C0549088008460088A8
:101A0000C72801DD0020088010BD00000010014043
:101A1000140000200801002010B540F225510648AE
:101A200000F01BF8012801D1FEF70CFF40F2255110
:101A3000014800F003F810BD0044004010B500223A
:101A4000002340F66A14A14200D100BF0A1201240B
:101A50009440A3B2DC43048010BD70B5024600245C
:101A600000230025002040F66A16B14200D100BFD5
:101A7000C1F3421501F01F03012606FA03F3012DFD
:101A800002D19689334006E0022D02D1168A3340F6
:101A900001E0968A33400C12012606FA04F41688F7
:101AA000344013B10CB1012000E0002070BD0146AC
:101AB0008888C0F30800704700BFFEE700BF70478A
:101AC00010B504466FF00400FFF7CAFDE11704EB00
:101AD0005171C1F3C701074A11701046007800EB3D
:101AE0004001C1EBC0104FF6FF7101EAC00002498E
:101AF000088010BD0C0000200E00002070B50446C8
:101B00004FF4077094FBF0F0C6B24FF4077094FBEB
:101B1000F0F100FB114085B205E04FF4077000F0D2
:101B200009F8701EC6B2002EF7D115B1284600F094
:101B300001F870BD0146114A12884A434FF0E02374
:101B40005A6100229A611A46126942F001021A6132
:101B500000BF4FF0E022106900F001021AB100F45A
:101B60008032002AF5D04FF0E022126922F0010203
:101B70004FF0E0231A6100229A6170470E000020A6
:101B80001FB500BF4FF4A060FEF7DEFE5420FFF744
:101B900097FFFEF72BFFFFF74DFCFFF731FCFFF738
:101BA00059FB0020FFF73CFA0C281AD014208DF8BE
:101BB000040031208DF8050000208DF80600132068
:101BC0008DF8030004208DF8010012208DF802002A
:101BD00005208DF800000C22694601A8FFF75EFB86
:101BE00000BF00BF4FF40050029001208DF80C00A0
:101BF00000208DF80E0001208DF80F0002208DF8D6
:101C00000D0001210420FFF7BDF802A91848FEF7D6
:101C1000ABFD1848FEF720FC002425E00121164802
:101C2000FFF7B3FD4FF47A70FFF768FF4FF47A7057
:101C3000FFF764FF4FF47A70FFF760FF4FF47A709C
:101C4000FFF75CFF4FF47A70FFF758FF641C182011
:101C500004232246002100900846FFF71BF8FEF7F8
:101C60006DFF642C00D100E0D8E700BF00BFFEE7A5
:101C700000080240002001400004004010B5024668
:101C8000012000E050430B1EA1F10104E1B2F9D1A3
:101C900010BD4FF04070E1EE100A704700000000E8
:101CA0000000000000000000000000003F400000B5
:101CB0000000000000003000400030004000000044
:101CC00009000BC03D000BC03D00090018C02440B6
:101CD0007FE0224031800000180024C01B000D80EE
:101CE0003240018003801C4027401C800740004098
:101CF0001000600000000000000000000000000074
:101D000000001F80204040200000402020401F8015
:101D100000000000090006001F8006000900000006
:101D2000040004003F800400040000000010006074
:101D30000000000000000000040004000400040093
:101D4000040000000000004000000000000000004F
:101D5000002001C006003800400000001F80204025
:101D6000204020401F800000000010403FC0004085
:101D70000000000018C0214022402440184000000C
:101D800010802040244024401B80000002000D00F1
:101D900011003FC0014000003C802440244024400A
:101DA000238000001F802440244034400380000032
:101DB0003000200027C03800200000001B80244095
:101DC000244024401B8000001C0022C022402240EE
:101DD0001F8000000000000008400000000000001C
:101DE000000000000460000000000000000004008B
:101DF0000A00110020804040090009000900090084
:101E00000900000000004040208011000A0004008A
:101E10001800200023402400180000001F802040EC
:101E2000274029401F400000004007C039000F0034
:101E300001C0004020403FC0244024401B800000DF
:101E40001F802040204020403080000020403FC0C4
:101E5000204020401F80000020403FC024402E40F2
:101E600030C0000020403FC024402E003000000061
:101E70000F001080204022403380020020403FC0ED
:101E8000040004003FC02040204020403FC02040CC
:101E9000204000000060202020203FC020002000C3
:101EA00020403FC024400B0030C0204020403FC0B5
:101EB00020400040004000C03FC03C0003C03C0048
:101EC0003FC0000020403FC00C4023003FC0200026
:101ED0001F802040204020401F80000020403FC045
:101EE00024402400180000001F802140214020E0F1
:101EF0001FA0000020403FC02440260019C0004021
:101F000018C024402440224031800000300020408E
:101F10003FC020403000000020003F8000400040D3
:101F20003F80200020003E0001C007003800200054
:101F3000380007C03C0007C038000000204039C00E
:101F4000060039C0204000002000384007C038405B
:101F500020000000304021C02640384020C0000052
:101F6000000000007FE040204020000000007000E2
:101F70000C000380004000000000402040207FE073
:101F800000000000000020004000200000000000D1
:101F900000100010001000100010001000000000E1
:101FA00040000000000000000000028005400540E5
:101FB00003C0004020003FC00440044003800000F4
:101FC000000003800440044006400000000003803D
:101FD000044024403FC0004000000380054005400D
:101FE00003400000000004401FC0244024402000A3
:101FF000000002E0055005500650042020403FC07C
:102000000440040003C000400000044027C000401A
:102010000000000000100010041027E00000000085
:1020200020403FC00140070004C004402040204041
:102030003FC000400040000007C0040007C004008B
:1020400003C00000044007C00440040003C0004077
:10205000000003800440044003800000041007F0E7
:10206000045004400380000000000380044004503A
:1020700007F00010044007C0024004000400000004
:10208000000006400540054004C0000000000400B8
:102090001F8004400040000004000780004004400E
:1020A00007C000400400070004C0018006000400CF
:1020B000060001C0070001C006000000044006C081
:1020C000010006C0044000000410071004E0018075
:1020D000060004000000044005C006400440000063
:1020E0000000000004007BE0402000000000000031
:1020F0000000FFF000000000000040207BE0040032
:10210000000000004000800040002000200040004F
:1021100000000000000000000000000000000000BF
:102120000000000000001FCC000C000000000000B8
:10213000000008003000600008003000600000006F
:10214000022003FC1E20022003FC1E2002200000AF
:1021500000000E1811043FFF10840C7800000000EE
:102160000F0010840F3800C0077818840078000032
:1021700000780F8410C411240E9800E40084000835
:10218000080068007000000000000000000000006F
:1021900000000000000007E01818200440020000C2
:1021A000000040022004181807E0000000000000B2
:1021B0000240024001800FF0018002400240000016
:1021C0000080008000800FF8008000800080000008
:1021D0000001000D000E00000000000000000000E3
:1021E000000000800080008000800080008000806F
:1021F0000000000C000C00000000000000000000C7
:102200000000000600180060018006001800200091
:10221000000007F0080810041004080807F0000088
:102220000000080408041FFC000400040000000073
:1022300000000E0C10141024104411840E0C000029
:1022400000000C1810041104110412880C70000016
:10225000000000E00320042408241FFC00240000E8
:1022600000001F98108411041104108810700000E1
:10227000000007F00888110411041888007000009D
:1022800000001C00100010FC13001C0010000000D7
:1022900000000E3811441084108411440E380000E0
:1022A00000000700088C10441044088807F0000064
:1022B000000000000000030C030C00000000000000
:1022C0000000000000010106000000000000000006
:1022D00000000080014002200410080810040000E3
:1022E0000220022002200220022002200220000000
:1022F00000001004080804100220014000800000C3
:1023000000000E001200100C106C10800F00000076
:1023100003E00C1813E4142417C4082807D00000A5
:102320000004003C03C41C40074000E4001C0004FF
:1023300010041FFC1104110411040E880070000029
:1023400003E00C1810041004100410081C10000006
:1023500010041FFC100410041004080807F000000B
:1023600010041FFC1104110417C410040818000005
:1023700010041FFC1104110017C010000800000019
:1023800003E00C181004100410441C7800400000F6
:1023900010041FFC10840080008010841FFC1004B7
:1023A0000000100410041FFC1004100400000000C2
:1023B00000030001100110011FFE100010000000BA
:1023C00010041FFC110403801464181C1004000086
:1023D00010041FFC1004000400040004000C0000A2
:1023E00010041FFC1F0000FC1F001FFC1004000055
:1023F00010041FFC0C04030000E010181FFC100068
:1024000007F00808100410041004080807F0000082
:1024100010041FFC10841080108010800F0000003A
:1024200007F0081810241024101C080A07F20000F6
:1024300010041FFC1104110011C011300E0C000417
:1024400000000E1C11041084108410441C3800007D
:102450001800100010041FFC1004100018000000E9
:1024600010001FF810040004000410041FF81000EE
:1024700010001E0011E0001C007013801C001000F2
:102480001FC0103C00E01F0000E0103C1FC0000017
:102490001004180C163401C001C01634180C1004B6
:1024A00010001C00130400FC13041C0010000000AA
:1024B0000804101C1064108413041C04101800007D
:1024C0000000000000007FFE4002400240020000C9
:1024D000000030000C0003800060001C00030000BE
:1024E00000004002400240027FFE000000000000A9
:1024F00000000000200040004000400020000000DC
:1025000000010001000100010001000100010001C3
:10251000000040004000200000000000000000001B
:1025200000000098012401440144014400FC00041F
:1025300010001FFC008801040104008800700000E6
:1025400000000070008801040104010400880000FC
:102550000000007000880104010411081FFC000441
:10256000000000F8014401440144014400C8000097
:102570000000010401040FFC1104110411001800F3
:10258000000000D601290129012901C90106000026
:1025900010041FFC008401000100010400FC000481
:1025A00000000104190419FC0004000400000000EC
:1025B0000000000300010101190119FE00000000E4
:1025C00010041FFC0024004001B4010C01040000B1
:1025D0000000100410041FFC0004000400000000B0
:1025E000010401FC0104010001FC0104010000FCE4
:1025F000010401FC008401000100010400FC00044E
:10260000000000F8010401040104010400F80000C6
:10261000010101FF00850104010400880070000031
:1026200000000070008801040104010501FF0001A1
:102630000104010401FC0084010401000180000088
:10264000000000CC01240124012401240198000091
:1026500000000100010007F801040104000000006F
:10266000010001F8000400040004010801FC00045A
:10267000010001800170000C001001600180010068
:1026800001F0010C003001C00030010C01F001002C
:1026900000000104018C00740170018C0104000031
:1026A000010101810171000E00180160018001002B
:1026B00000000184010C013401440184010C00007C
:1026C000000000000000000001003EFC400240024B
:1026D0000000000000000000FFFF000000000000FC
:1026E0000000400240023EFC01000000000000002B
:1026F00000006000800080004000400020002000BA
:1027000000000000000000000000000000000000C9
:1027100000000000000000000000000000000000B9
:1027200000000000000000000000000000000000A9
:102730000000000F80380FFE380F803800000000C6
:102740000000000000000000000000000000010088
:10275000000600000C0000380000310000060000F8
:102760000C000038000030000000000000000000F5
:1027700061800067F807F980006180006180006176
:10278000800061800067F807F98000618000000028
:1027900000000000000001C0E003E0F00630080483
:1027A00018081FFFFE040E080787F00381E00000F1
:1027B0000000000001F000060C00040408060C7084
:1027C00001F9C0000E00003BE000EC180708080407
:1027D0000C180003E00000000001E00007F003F81F
:1027E00018041C0804170807E1D003C0E00023B058
:1027F000003C08002008000010000000000000015C
:1028000000003100003200001C0000000000000049
:1028100000000000000000000000000000000000B8
:1028200000000000000000000000000000000000A8
:102830007F0001FFC00780F00C001810000420008A
:10284000020000000000002000021000040C00182C
:102850000780F001FFC0007F0000000000000000C2
:1028600000000000000000000000000042000066C0
:1028700000006600003C0000180003FFC0001800C4
:10288000003C0000660000660000420000000000FE
:10289000080000080000080000080000080001FF10
:1028A000C000080000080000080000080000080040
:1028B00000000000000100003100003200001C0098
:1028C0000000000000000000000000000000000008
:1028D00000000000000000000800000800000800E0
:1028E00000080000080000080000080000080000C0
:1028F00008000008000000000000000000000000C8
:10290000380000380000380000000000000000001F
:1029100000000000000000000000000000000000B7
:10292000000600001C000070000180000E0000384E
:102930000000C0000700001C000030000000000084
:10294000000000007F8001FFE00380700600180493
:10295000000804000806001803807001FFE0007FF3
:1029600080000000000000000000010008010008D5
:1029700001000803FFF807FFF80000080000080046
:10298000000800000000000000000001C03802C084
:1029900058040098040118040218040418061C18AE
:1029A00003F81801E0F8000000000000000000013A
:1029B000C0E003C0F0040008040808040808061872
:1029C0000803F41801E7F00001E000000000000037
:1029D000000000000300000D000011000061000075
:1029E000810803010807FFF80FFFF8000108000144
:1029F000080000000000000000E007FCD006080806
:102A0000061008061008061008061838060FF0060B
:102A100007C0000000000000000000003F8001FF30
:102A2000E003843002081804100804100804100899
:102A3000071810030FF00007C0000000000000009E
:102A4000000003C0000700000600000600F80607AB
:102A5000F806180006E0000700000600000000006D
:102A600000000001E1E003F7F00634100418080448
:102A70001808040C08040C0806161803F3F001C12A
:102A8000E000000000000000F80003FC30030638FE
:102A90000402080402080402080404100308F001F8
:102AA000FFC0007F000000000000000000000000E8
:102AB000000000000000000070380070380070381E
:102AC0000000000000000000000000000000000006
:102AD000000000000000000000000000301A00307C
:102AE0001C000000000000000000000000000000CA
:102AF0000000000000000008000014000022000098
:102B00004100008080010040020020040010080005
:102B1000080000000000000021000021000021004A
:102B20000021000021000021000021000021000000
:102B3000210000210000000000000000000008004B
:102B400008040010020020010040008080004100C5
:102B50000022000014000008000000000000000334
:102B6000C00004C000040000080038080F3808083E
:102B7000380810000C300007E00003C0000000001F
:102B8000000000003F8000FFE0038070020F10068D
:102B9000708804C088048308047F8802C090030101
:102BA0002000FE400000080000180001F8003E0868
:102BB00001C20007020007E20000FE00001FC8007B
:102BC00001F800003800000804000807FFF807FFBC
:102BD000F804080804080804080804080806180887
:102BE00003F41801E7F00001E0000000000000001D
:102BF0003F8001FFE0038070020018040008040019
:102C0000080400080400100600200780C00000002F
:102C100004000807FFF807FFF80400080400080490
:102C2000000804001802001003807001FFE0007F1C
:102C30008000000004000807FFF807FFF8040808F8
:102C4000040808040808040808043E0804000806EC
:102C5000001801006000000004000807FFF807FFEB
:102C6000F8040808040800040800040800043E00F2
:102C700006000006000001800000000000000000C7
:102C80003F8001FFE0038070060018040008040282
:102C9000080402080203F00783F0000200000200AB
:102CA00004000807FFF807FFF80408080008000000
:102CB000080000080000080004080807FFF807FFE4
:102CC000F8040008000000000000040008040008E8
:102CD00004000807FFF807FFF804000804000804D0
:102CE00000080000000000000000000000060000D6
:102CF0000700000104000104000104000307FFFEB7
:102D000007FFFC04000004000004000004000807A2
:102D1000FFF807FFF8040C08001800003E0004C785
:102D2000800503C80600F8040038040018000008F5
:102D300004000807FFF807FFF80400080000080077
:102D4000000800000800000800000800001800004B
:102D50006000000004000807FFF807800807FC0077
:102D6000007FC00003F80007C00078000780080754
:102D7000FFF807FFF804000804000807FFF8070041
:102D80000803C00000E000003800001E000007003B
:102D90000001C00400F007FFF8040000000000007C
:102DA0007F8001FFE0038070060018040008040023
:102DB0000806001803003001FFE0007F80000000DB
:102DC00004000807FFF807FFF804040804040004DF
:102DD0000400040400040400060C0003F80001F0E1
:102DE00000000000000000007F8001FFE003807011
:102DF0000600880400880400C806003C03003E0169
:102E0000FFE6007F8400000004000807FFF807FFCA
:102E1000F8040808040800040C00040F00040BC0A8
:102E20000610F003F03801E008000008000000017F
:102E3000E0F803F030063010041808041808040CF9
:102E400008040C080206180207F00781E0000000E1
:102E500001800006000004000004000004000807D0
:102E6000FFF807FFF8040008040000040000060053
:102E70000001800004000007FFE007FFF0040018D5
:102E80000000080000080000080000080000080416
:102E9000001007FFE004000004000006000007E047
:102EA0000007FE00041FE00001F80000380001E008
:102EB000043E0007C00006000004000004000007F4
:102EC000E00007FFC0041FF80007C007F80007FF75
:102ED00080043FF80007C004F80007000004000069
:102EE00000000004000806001807C07805F1C800BB
:102EF0003E00001F800463E80780F8060018040005
:102F00000800000004000006000007800007E00839
:102F1000047C08001FF80007F800180804E0080700
:102F20000000060000040000000000010008060088
:102F3000380400F80403E8040F08047C0805F008CE
:102F400007C008070018040060000000000000002F
:102F500000000000000000000000003FFFFE200015
:102F600002200002200002200002200002000000D7
:102F700000000000000008000007000000C0000082
:102F800038000006000001C000003000000E000004
:102F900001000000000000000000200002200002EC
:102FA0002000022000022000023FFFFE000000007F
:102FB0000000000000000000000000000000000011
:102FC0000008000010000030000020000030000069
:102FD00010000008000000000000000000000100D8
:102FE00000010000010000010000010000010000DC
:102FF00001000001000001000001000001000001CB
:103000000000000000000000002000002000001070
:1030100000001000000000000000000000000000A0
:10302000000000000000000000F00019F8001B186C
:10303000002208002608002408002410003FF800A1
:103040001FF800000800001800000004000007FF3F
:10305000F80FFFF0001818001008002008002008E2
:10306000003018001FF0000FC0000000000000003A
:1030700007C0001FF00018300020080020080020C2
:1030800008003C08001C1000006000000000000068
:103090000000000007C0001FF000381800200800E2
:1030A000200800200804101007FFF80FFFF00000B0
:1030B000100000000000000000000007C0001FF02A
:1030C00000123000221800220800220800320800F6
:1030D0001E10000E20000000000000002000002054
:1030E0000800200801FFF803FFF806200804200864
:1030F000042008072000030000000000000000007A
:10310000000E000E6E001FF30031B10020B1002050
:10311000B1003191001F13002E1E00200E00300060
:1031200000000004000807FFF80FFFF80010080077
:103130002000002000002008003FF8001FF80000D9
:103140000800000000000000000000200800200827
:10315000002008063FF8063FF800000800000800BD
:103160000008000000000000000000000000000057
:1031700003000003002001002001002003063FFEA1
:10318000063FFC00000000000000000000000004FA
:10319000000807FFF80FFFF8000188000300002F68
:1031A000C00038F8002038002008000008000000A7
:1031B00000000000000004000804000804000807E4
:1031C000FFF80FFFF80000080000080000080000EA
:1031D00000000000002008003FF8003FF800100841
:1031E000002000003FF8003FF80010080020000019
:1031F0003FF8003FF8000008000000002008003FF2
:10320000F8003FF80010080010000020000020081F
:10321000003FF8001FF80000080000000000000058
:1032200007C0000FF0001830003008002008002010
:1032300008003008001830000FF00007C000000040
:10324000000000002001003FFF003FFF00101100C0
:103250002009002008002008003038001FF0000F6F
:10326000C00000000000000007C0001FF000381878
:10327000002008002008002009001011001FFF0096
:103280003FFF00000100000000200800200800208F
:1032900008003FF8003FF800080800100800200868
:1032A000002000003000003000000000000000009E
:1032B0000000000C78001E180033080023080021CD
:1032C000080021880021980030F0003860000000DC
:1032D00000000000200000200000200000FFF0039C
:1032E000FFF800200800200800200800003000003F
:1032F00000000000000000002000003FF0007FF808
:10330000000018000008000008002010003FF8002E
:103310007FF00000100000000000000020000030DE
:1033200000003C00003F800023F0000078000070A7
:10333000002380003C00003000002000002000003E
:103340003C00003FE00023F80000E0002700003EC2
:1033500000003FE00021F80001E0003E00002000F6
:10336000000000002008002008003838003E6800F7
:1033700027800003C8002CF80038380020180020EF
:1033800008000000000000002000003003003C01A5
:10339000003F830023EC000070002380003C00000D
:1033A00020000020000000000000000000000038A5
:1033B000080020380020F80023E8002F88003E088D
:1033C0000038080020180000700000000000000015
:1033D00000000000000000000000000008000014D1
:1033E000001FF7FC30000620000200000000000073
:1033F00000000000000000000000000000000000CD
:103400000000FFFFFF0000000000000000000000BF
:103410000000000000000000000020000230000654
:103420001FF7FC001400000800000000000000006E
:103430000000000000000000000000180000600014
:1034400000400000400000200000100000080000C4
:103450000400000400000C00001000007C34000890
:103460000000002018000000C40100089434000887
:1034700018000020180C0000E00100080000000007
:10348000000000080000DC05000000000000000053
:043490000000000038
:040000050800018965
:00000001FF
