:020000040800F2
:1000000000050020A9010008F31A0008F9190008EA
:10001000F11A0008B5020008C52100080000000020
:10002000000000000000000000000000F71A0008B7
:10003000B702000800000000F51A0008F91A0008CD
:10004000C3010008C3010008C3010008C301000880
:10005000C3010008C3010008C3010008C301000870
:10006000C3010008C3010008C3010008C301000860
:10007000C3010008C3010008C3010008C301000850
:10008000C3010008C3010008C3010008000000000C
:10009000000000000000000000000000C301000894
:1000A000C3010008C3010008C3010008C301000820
:1000B000C3010008C3010008D51B0008C3010008E4
:1000C000C3010008C3010008C3010008C301000800
:1000D000C3010008C3010008B921000800000000A6
:1000E000C3010008C3010008C301000800000000AC
:1000F000000000000000000000000000C301000834
:1001000000000000C3010008C3010008C30100088B
:1001100000000000000000000000000000000000DF
:10012000C3010008C3010008C3010008C30100089F
:10013000C3010008000000000000000000000000F3
:10014000000000000000000000000000C3010008E3
:10015000C3010008C3010008C3010008C30100086F
:10016000C3010008C30100080000000000000000F7
:10017000000000000000000000000000000000007F
:1001800000000000C30100080000000000000000A3
:10019000C3010008DFF80CD000F07AF800480047EF
:1001A000092200080005002006488047064800474D
:1001B000FEE7FEE7FEE7FEE7FEE7FEE7FEE7FEE717
:1001C000FEE7FEE7811B0008950100082DE9F05FBE
:1001D0000546002092469B468846064681464024B6
:1001E0001BE0284641464746224600F041F8534668
:1001F0005A46C01A914110D311461846224600F0C3
:1002000028F82D1A67EB01084F46224601200021ED
:1002100000F01FF817EB00094E41201EA4F1010465
:10022000DFDC484631462A464346BDE8F09FD2B25D
:1002300001E000F8012B491EFBD270470022F6E7CF
:1002400010B513460A4604461946FFF7F0FF20464C
:1002500010BD202A04DB203A00FA02F1002070478A
:100260009140C2F1200320FA03F3194390407047F4
:10027000202A04DB203A21FA02F00021704721FAFB
:1002800002F3D040C2F12002914008431946704762
:10029000064C074D06E0E06840F0010394E80700D3
:1002A00098471034AC42F6D3FFF778FF4822000895
:1002B00068220008FEE7704790F83510022903D045
:1002C0008021416501207047052180F835100068C4
:1002D000016821F001010160002070472DE9F84F0D
:1002E000044691480D46844212D0904884420FD073
:1002F0008F4884420CD08F48844209D08E48844273
:1003000006D08E48844203D0B3218DA001F07AFF3D
:1003100028680104090C01D0000C03D0B42188A086
:1003200001F070FF6868F8B101281DD011281BD0BA
:10033000022819D0122817D09049884214D0904929
:10034000884211D08F4988420ED08F4988420BD005
:100350008E49884208D08E49884205D0032803D0B0
:10036000B52177A001F04EFFA86838B1012805D06B
:10037000022803D0B62172A001F044FF00264FF0FE
:10038000010B00BF0BFA06F02F6882460740574565
:100390007ED16868022801D0122828D12869C8B106
:1003A0000C2817D0012815D0022813D0042811D00A
:1003B00005280FD006280DD007280BD0082809D013
:1003C0000A2807D0092805D00F2803D0C7215CA030
:1003D00001F018FFF00804EB8002106A7107CB0EE1
:1003E0000F2199408843296999400143116220688F
:1003F0007200032101FA02F82979914601F0030104
:1004000020EA080001FA09F1014321606868012827
:1004100005D0022803D0112801D012281CD1E86889
:1004200048B1012807D0022805D0032803D0DA21DB
:1004300043A001F0E7FEA068E96820EA080001FA9D
:1004400009F10143A1606068297920EA0A00C1F33B
:100450000011B14001436160E068A96820EA08002A
:1004600001FA09F10143E1606868C00056D54948C6
:10047000016841F480410160006826F0030100F446
:100480008040009044480B18D3F80808B10700E0FA
:1004900044E00A0F0F219140884323498C4201D147
:1004A000002114E021498C4201D101210FE02049B3
:1004B0008C4201D102210AE01E498C4201D1032164
:1004C00005E01D498C4201D1042100E00721914043
:1004D0000143C3F80818314908686A68B843D20371
:1004E00000D5384308602D49091D08686A68B8437B
:1004F000920300D5384308602849083108686A68C3
:10050000B843D20200D53843086024490C3108684A
:100510006A68B843920200D538430860761C102EF2
:10052000FFF430AFBDE8F88F000002400004024045
:1005300000080240000C024000100240001C024073
:100540002E2E2F447269766572732F53544D3332B9
:10055000463478785F48414C5F4472697665722F03
:100560005372632F73746D3332663478785F6861C9
:100570006C5F6770696F2E6300000000000011104F
:1005800000002110000031100000121000002210A5
:10059000000032104438024000300140003C01406D
:1005A00070B515460C00064604D140F29F1108A014
:1005B00001F028FE45B1012D04D04FF4D07104A004
:1005C00001F020FEB46170BD2004B06170BD000078
:1005D0002E2E2F447269766572732F53544D333229
:1005E000463478785F48414C5F4472697665722F73
:1005F0005372632F73746D3332663478785F686139
:100600006C5F6770696F2E630000000001488068AE
:100610007047000000000020024881680278114401
:1006200081607047000000200B4810B5016841F45C
:1006300000710160016841F480610160016841F46A
:1006400080710160032000F0C5F8002000F006F87A
:1006500000F024F8002010BD003C024070B50D4DA4
:1006600004464FF47A712878B1FBF0F00A49096822
:10067000B1FBF0F000F093FC48B9102C07D2002237
:100680002146501E00F056F800206C6070BD01201D
:1006900070BD0000000000200C0000200B4882B05C
:1006A000016841F480410160006800F480400090DE
:1006B0000648001F016841F080510160006800F0A9
:1006C00080500090052002B000F084B84438024009
:1006D00010B5040003D5BE2107A001F093FD002C46
:1006E00009DB04F01F01012088406109890001F144
:1006F000E021C1F8000110BD2E2E2F4472697665ED
:1007000072732F53544D3332463478785F48414CDE
:100710005F4472697665722F5372632F73746D3301
:1007200032663478785F68616C5F636F7274657885
:100730002E63000070B515460C460646102A03D3FA
:10074000AA2114A001F05EFD102C03D3AB2111A04F
:1007500001F058FD1E480068C0F30223C3F10702F0
:100760002046042A00D90422191D072901D200239A
:1007700000E0DB1E012404FA02F1491E0140994009
:100780009C40641E2C4021433046BDE8704001F07F
:100790001ABD00002E2E2F447269766572732F5396
:1007A000544D3332463478785F48414C5F44726927
:1007B0007665722F5372632F73746D33326634789B
:1007C000785F68616C5F636F727465782E63000098
:1007D0000CED00E010B5044607280BD0062C09D01C
:1007E000052C07D0042C05D0032C03D0922108A09F
:1007F00001F008FD154904F0070208684FF6FF03F1
:10080000184040EA0220124A1043086010BD000060
:100810002E2E2F447269766572732F53544D3332E6
:10082000463478785F48414C5F4472697665722F30
:100830005372632F73746D3332663478785F6861F6
:100840006C5F636F727465782E6300000CED00E0DE
:100850000000FA052DE9F0470E4604007DD020681F
:10086000401E0E2804D94FF410717AA001F0CAFC82
:1008700096B1012E10D0022E0ED0032E0CD0042ED5
:100880000AD0052E08D0062E06D0072E04D040F23E
:10089000412170A001F0B6FCDFF8F081D8F800002B
:1008A000F7B200F00F00B04207D288F80070D8F815
:1008B000000000F00F00B0424FD12068744D810756
:1008C00029D5400703D5286840F4E05028602078F7
:1008D000000703D5286840F460402860A068A0B1F4
:1008E000802812D0902810D0A0280ED0B0280CD08C
:1008F000C0280AD0D02808D0E02806D0F02804D09C
:100900004FF4197153A001F07DFC2868A16820F014
:10091000F000084328602078C00743D0DFF87091CA
:100920006068A9F1080988B1012822D0022824D0E2
:10093000032822D040F26B2146A001F063FC6068DE
:10094000012816D0022818D0032816D0D9F80000A4
:100950008007002833DA286800E030E0616820F082
:10096000030008432860FFF751FE814641F2883AB0
:1009700011E0D9F800008003EBE7D9F8000080010E
:10098000E7E700BFFFF742FEA0EB0901514502D99E
:100990000320BDE8F0872868616800F00C00B0EB28
:1009A000810FEFD1D8F80010404601F00F01B1429D
:1009B00007D90770006800F00F00B04201D0012095
:1009C000E7E720784FF4805640074FF4A0574FF4E4
:1009D000C0584FF4E05914D5E06860B1B0420AD075
:1009E000B84208D0404506D0484504D040F2A9217D
:1009F00018A001F007FC2868E16820F4E0500843E3
:100A000028602078000715D5206960B1B0420AD06F
:100A1000B84208D0404506D0484504D04FF42C7168
:100A20000CA001F0EFFB2868216920F4604040EA47
:100A3000C100286000F052F82968164AC1F303117A
:100A4000515CC840144908600020FFF707FE0020F1
:100A50009FE700002E2E2F447269766572732F5324
:100A6000544D3332463478785F48414C5F44726964
:100A70007665722F5372632F73746D3332663478D8
:100A8000785F68616C5F7263632E6300003C0240B4
:100A900008380240302200080C00002004480549B4
:100AA00000680968044AC1F38221515CC84070475C
:100AB0000C00002008380240402200080448054984
:100AC00000680968044AC1F34231515CC84070476C
:100AD0000C0000200838024040220008154810B5DC
:100AE000006810F00C02144813D01449042A0FD0E7
:100AF000082A0ED10F4C241F2268236802F03F02FF
:100B00005B0207D52068C0F38810A0FB010106E056
:100B1000084610BD2168C1F38811A1FB0001002324
:100B2000FFF754FB2168C1F30141491C4900B0FBA8
:100B3000F1F010BD083802400024F40040787D0137
:100B40002DE9F84F04007DD020680F2803D9E82153
:100B5000F2A001F057FB2078DFF8F8B3FE4DC00794
:100B600056D060684FF480364FF4A02738B1B042B9
:100B700005D0B84203D0ED21E8A001F043FBDBF83B
:100B800000105846C1F38101012909D00068C0F363
:100B9000810002280BD1EF48001F0068400206D5F3
:100BA0002868800334D560680028CCD030E06068C5
:100BB000B04203D1286840F480300CE0B842286885
:100BC00003D140F480202860F4E720F480302860CE
:100BD000286820F480202860606860B1FFF716FD67
:100BE000064604E0FFF712FD801B64287ED82868C3
:100BF0008003F7D50CE0FFF709FD064605E000BFCE
:100C0000FFF704FD801B6428F0D828688003F7D420
:100C10002078DFF8488380074FF0000956D5E06858
:100C200030B1012804D040F21F11BCA001F0EAFA53
:100C300020691F2804D94FF49071B8A001F0E2FA9E
:100C4000584600E092E0DBF8001011F00C0F09D0DC
:100C50000068C0F38100022811D1BE48001F00685F
:100C600040020CD42868800702D5E06801287DD1B5
:100C70002868216920F0F80040EAC10016E0E06829
:100C8000B0B10120C8F80000FFF7C0FC064604E040
:100C9000FFF7BCFC801B0228A8D828688007F7D57E
:100CA000286820F0F801206941EAC00028600DE0C2
:100CB000C8F80090FFF7AAFC064604E0FFF7A6FC80
:100CC000801B022892D828688007F7D42078000774
:100CD0002ED5A04EA24F60696C36D0B1012808D045
:100CE0004FF4B0718DA001F08DFA00E04DE1606924
:100CF00078B101203860FFF789FC074605E000BFA6
:100D0000FFF784FCC01B0228C6D830688007F7D5DF
:100D10000EE0C7F80090FFF779FC074605E000BF3A
:100D2000FFF774FCC01B0228B6D830688007F7D4E0
:100D30002078400776D5A068002740B1012806D06A
:100D4000052804D04FF4C67174A001F05BFADFF8F7
:100D500004A20AF1380ADAF80000C0000DD4DAF86B
:100D6000001041F08051CAF8001000E0D4E0DAF839
:100D70000000012700F0805000907A4E3068C005D6
:100D800011D4306840F480703060FFF73FFC009071
:100D900006E000BFFFF73AFC0099401A022891D8FC
:100DA0003068C005F6D56B4EA068683601280FD0B4
:100DB0000528306810D020F001003060306820F045
:100DC00004003060A068B8B1FFF720FC00900FE08D
:100DD000306840F00100F4E740F004003060F7E7CD
:100DE000FFF714FC0099411A41F2883081428BD8F8
:100DF00030688007F4D50EE0FFF708FC009007E0AC
:100E0000FFF704FC0099411A41F2883081428BD8E7
:100E100030688007F4D42FB1DAF8001021F0805147
:100E2000CAF80010A069002875D0012809D002284E
:100E300007D040F2CF1139A001F0E4F9A0690028F1
:100E4000F2D0DBF80000C0F38100022864D0A06972
:100E5000022805D0C8F86090FFF7D8FB044697E059
:100E6000E06938B1B0F5800F04D04FF4EC712BA0DD
:100E700001F0C8F9206A3F2804D940F2D91127A00F
:100E800001F0C0F9606A3238B0F5BF7F04D94FF481
:100E9000ED7122A001F0B6F9A06A02280AD0042858
:100EA00008D0062806D0082804D040F2DB111BA089
:100EB00001F0A8F9E06A801E0D2804D94FF4EE7104
:100EC00016A001F09FF94746C8F86090FFF79EFB17
:100ED000064604E0FFF79AFB801B022855D82868D5
:100EE0008001F7D4D4E907010843A16A1E4A4908E2
:100EF00002EB0141626A41EA8211084394F82C1026
:100F000040EA01611348001F016001203866FFF7C5
:100F10007DFB04462FE03EE03FE000002E2E2F44F4
:100F20007269766572732F53544D33324634787834
:100F30005F48414C5F4472697665722F5372632F2C
:100F400073746D3332663478785F68616C5F726396
:100F5000632E630008380240003802400000474218
:100F6000800E4742007000400000FFFFFFF74EFB7D
:100F7000001B022809D828688001F7D50BE000BFC4
:100F8000FFF744FB001B022802D90320BDE8F88FBD
:100F900028688001F4D40020F8E70120F6E710B5B6
:100FA000401EB0F1807F01D3012010BD4FF0E0243E
:100FB00060610F21601701F006F90020A061072091
:100FC0002061002010BD70477047704770B50D4616
:100FD000044600682849884210D0B0F1804F0DD0F7
:100FE000264988420AD02649884207D025498842A6
:100FF00004D040F2616124A001F004F9286890B1A6
:10100000102810D020280ED030280CD040280AD02C
:10101000502808D0602806D0702804D040F26261C1
:1010200019A001F0EFF86868802805D020B140F2DF
:10103000636115A001F0E6F894F83C00012818D08F
:10104000012304F83C3F0220607054F83C1C4868BF
:101050008A6820F070062868304322F080066A68AB
:101060004860324354F83C0C82606370002020706A
:1010700070BD022070BD000000000140000400406F
:1010800000080040000C00402E2E2F447269766547
:1010900072732F53544D3332463478785F48414C45
:1010A0005F4472697665722F5372632F73746D3368
:1010B00032663478785F68616C5F74696D5F6578FB
:1010C0002E63000010B5040046D0314920688842E4
:1010D00019D0B0F1804F16D02E49884213D02E4936
:1010E000884210D02D4988420DD02D4988420AD01F
:1010F0002C49884207D02C49884204D04FF485718E
:101100002AA001F07FF8A06860B110280AD020283A
:1011100008D0402806D0602804D040F20B1123A04C
:1011200001F070F8206950B1B0F5807F07D0B0F5BC
:10113000007F04D04FF486711CA001F063F8A06911
:1011400030B1802804D040F20D1118A001F05AF8F7
:1011500094F83D0010B10EE0012010BD002084F88D
:101160003C00204600F09AFD206C08B91D48206420
:10117000014620468847022084F83D00211D206852
:1011800000F02EFD012084F83D00002010BD00007D
:10119000000001400004004000080040000C004036
:1011A0000040014000440140004801402E2E2F44E1
:1011B0007269766572732F53544D333246347878A2
:1011C0005F48414C5F4472697665722F5372632F9A
:1011D00073746D3332663478785F68616C5F7469FC
:1011E0006D2E6300E911000808B500680B498842BC
:1011F00012D10B48016841F004010160006801222E
:1012000000F00400009002211E20FFF793FABDE8D1
:1012100008401E20FFF75CBA08BD0000000800402F
:10122000403802402DE9F05F054690F83C000C463E
:1012300001283FD04FF0010B85F83CB0022085F823
:101240003D0020684FF480594FF4005A484515D0AE
:10125000504513D090B1102810D020280ED030283F
:101260000CD040280AD0502808D0602806D070281A
:1012700004D041F27711B9A000F0C4FF286881685A
:1012800021F0770121F47F4181602068C149C24A81
:10129000C24BC34EC34F4FF0804C4FF40048502810
:1012A00070D00FDC202804D007DC0028FBD01028E9
:1012B0004ED13EE10220BDE8F09F3028F9D0402811
:1012C000F6D107E160287DD070285CD0484540D039
:1012D0005045EDD1286888420CD060450AD0904234
:1012E00008D0984206D0B04204D041F2A2119BA08F
:1012F00000F088FFA06858B1484509D0504507D094
:10130000B0F5405F04D041F2A51194A000F07AFF3F
:101310006068404509D040B1022806D00A2804D0B0
:1013200041F2A6118DA000F06DFFE0680F2804D9EE
:1013300041F2A71189A000F065FFD4E90121E3681B
:10134000286800F099FC2868816841F48041816038
:10135000BAE028688842FBD06045F9D09042F7D0C7
:101360009842F5D0B042F3D0B842F1D08E498842CD
:10137000EED08E498842EBD041F2831177A000F085
:1013800041FFA1E041E0286888420ED060450CD0C2
:1013900090420AD0984208D0B04206D0B84204D059
:1013A00041F28A116DA000F02DFFA06868B1484598
:1013B0000BD0504509D0B0F5405F06D041F28D11F9
:1013C00066A000E050E000F01DFF6068404509D0D5
:1013D00040B1022806D00A2804D041F28E115FA045
:1013E00000F010FFE0680F2804D941F28F115BA0D4
:1013F00000F008FFD4E90121E368286800F03CFC14
:101400002868816841F07701A1E7286888420ED0FA
:1014100060450CD090420AD0984208D0B04206D025
:10142000B84204D041F2B6114CA000F0EBFE606867
:10143000404509D040B1022806D00A2804D041F224
:10144000B91146A000F0DEFEE0680F2804D941F291
:10145000BA1142A000F0D6FEE2686168286800F088
:1014600053FC502128682DE0286888420ED0604542
:101470000CD090420AD0984208D0B04206D0B84270
:1014800004D041F2C61135A000F0BCFE60684045B2
:1014900009D040B1022806D00A2804D041F2C9116F
:1014A0002EA000F0AFFEE0680F2804D941F2CA1167
:1014B0002AA000F0A7FEE2686168286800F035FC09
:1014C0006021286800F0E2FB85F83DB0002085F837
:1014D0003C00F0E6286888420ED060450CD090426F
:1014E0000AD0984208D0B04206D0B84204D041F2A7
:1014F000D6111AA000F086FE6068404509D040B1C0
:10150000022806D00A2804D041F2D91113A000F015
:1015100079FEE0680F2804D941F2DA110FA000F03B
:1015200071FEE2686168286800F0EEFB40212868DF
:10153000C8E7286888420ED060450CD090420AD097
:10154000984208D0B04206D0B84204D041F2E91126
:1015500002A000F057FE21682868B3E72E2E2F4422
:101560007269766572732F53544D333246347878EE
:101570005F48414C5F4472697665722F5372632FE6
:1015800073746D3332663478785F68616C5F746948
:101590006D2E630000000140000400400008004080
:1015A000000C004000400140004401400048014060
:1015B00070477047704770B50446006801694FF086
:1015C0000005C943890717D4C168C943890713D4E3
:1015D000E91E01610120207720688069800702D020
:1015E000D4F8881005E0D4F8901020468847D4F845
:1015F000941020468847257720680169C943490728
:1016000019D4C168C943490715D46FF004010161B9
:10161000022020772068806910F4407F02D0D4F83F
:10162000881005E0D4F8901020468847D4F894102C
:1016300020468847257720680169C943090718D4DF
:10164000C168C943090714D46FF00801016104207F
:1016500020772068C069800702D0D4F8881005E0A0
:10166000D4F8901020468847D4F894102046884734
:10167000257720680169C943C90619D4C168C943DF
:10168000C90615D46FF01001016108202077206889
:10169000C06910F4407F02D0D4F8881005E0D4F877
:1016A000901020468847D4F8941020468847257724
:1016B00020680169C943C90708D1C168C943C9077E
:1016C00004D1891E0161A16F204688472068016905
:1016D000C94309060AD4C168C943090606D46FF094
:1016E00080010161D4F8A81020468847206801696C
:1016F000C94349060AD4C168C943490606D46FF0F4
:1017000040010161D4F880102046884720680169B3
:10171000C94389060CD4C168C943890608D46FF04F
:10172000200101612046D4F8A010BDE870400847B0
:1017300070BD70477047704770477047704770477B
:101740007047000070B5026804461068D16853699C
:1017500010F00F0F50D003F0010501F490763543DF
:101760005DD0C20705D0CA0503D5E26B42F0010285
:10177000E263420705D5DA0703D0E26B42F00202CA
:10178000E263820705D5DA0703D0E26B42F0040278
:10179000E263020705D5DA0703D0E26B42F00802E4
:1017A000E263E26B002A33D0800604D5880602D5B6
:1017B000204600F0E2FA20684069E16BC0F3801037
:1017C000090700D428B3204600F0C9FA206841690F
:1017D00049061AD5416921F040014161606BA0B111
:1017E0001B490165606BFEF767FD002810D0606B38
:1017F000016DBDE870400847830610D58B060ED5F5
:101800002046BDE8704000F0B8BA2046FFF798FFC8
:1018100070BD2046FFF794FF0020E06370BD030613
:1018200006D50B0604D52046BDE8704000F092BCFA
:101830004006F3D54806F1D5D168204621F0400195
:10184000D160202184F8391000F0D5F870BD000077
:101850004F1D000870B5040020D0A069354900284C
:10186000354A364B20681BD088420AD0904208D0B7
:10187000984206D040F2491131A000F0C3FCA069A3
:10188000C8B1A069B0F5807F15D0B0F5007F12D047
:10189000B0F5407F0FD04FF4A57109E0012070BD75
:1018A000884208D0904206D0984204D04FF4A771E5
:1018B00023A000F0A7FCA06838B1B0F5805F04D089
:1018C0004FF4A8711EA000F09DFCE06938B1B0F59E
:1018D000004F04D040F2511119A000F093FC94F88D
:1018E0003900002520B984F83850204600F046F829
:1018F000242084F839002068C16821F40051C160B7
:10190000204600F085FA2068016921F490410161C8
:101910002068416921F02A0141612068C16841F4D1
:101920000051C160E563202084F8390084F83A0052
:10193000002070BD00100140004400400014014030
:101940002E2E2F447269766572732F53544D3332A5
:10195000463478785F48414C5F4472697665722FEF
:101960005372632F73746D3332663478785F6861B5
:101970006C5F756172742E630000000010B586B054
:10198000044614216846FEF759FC1749206888422E
:1019900028D11648016841F400310160006800F464
:1019A0000030059011481038016841F001010160D4
:1019B0000068694600F0010005900C2000900220AC
:1019C0000190012002900320039007200490084812
:1019D000FEF784FC012211462620FEF7ABFE2620EE
:1019E000FEF776FE06B010BD0044004040380240CD
:1019F0000000024070477047FEE7000010B586B057
:101A000014216846FEF71AFC1548016841F00401EC
:101A10000160016801F004010591016841F0800155
:101A20000160016801F080010591016841F0010148
:101A3000016000680B4C00F0010005900022F021CD
:101A40002046FEF7ADFDF0200121CDE90001022086
:101A5000CDE9021069462046FEF740FC06B010BDF5
:101A6000303802400000024030B587B00025154CE8
:101A70000095019502950395049511480595206000
:101A80005420C4E901056420C4E903058020A06155
:101A90002046FFF717FB4FF4805000906946204620
:101AA000FFF7C0FB049504A920460595FFF78EFAC1
:101AB0002068C16841F00101C16007B030BD00007D
:101AC00000080040100000200848074901604FF45A
:101AD000E1314160002181600C22C160C0E9041243
:101AE0008161C161FFF7B6BE00440040BC00002028
:101AF000FEE7704770477047FEF78EBD30B593B074
:101B000030216846FEF79AFB14210CA8FEF796FBDD
:101B100019480025016841F080510160006800F01B
:101B2000805011901548016821F4404141F4004172
:101B300001600068022400F44040119001200090F0
:101B4000000401908001CDE9064019200890A820EA
:101B5000CDE9090404200B906846FEF7F1FF0CA9BB
:101B60000F2081E83100E002CDE90F0502210CA829
:101B7000FEF770FE13B030BD4038024000700040E8
:101B80001048016841F4700101600F48016841F09C
:101B9000010101600C4A00210832116002680B4B00
:101BA0001A400260031D0A4A1A60026822F4802269
:101BB000026005480C30016002495806803908600F
:101BC0007047000088ED00E000380240FFFFF6FE9D
:101BD000103000240148FFF7EEBC00001000002088
:101BE000F0B502681D4B1E4C9F031E4D1E4E9842C1
:101BF00007D0B84205D0A04203D0A84201D0B042DD
:101C000004D122F0700C4A6842EA0C02984210D0CB
:101C1000B8420ED0A0420CD0A8420AD0B04208D0A0
:101C2000124CA04205D0124CA04202D0114CA0424E
:101C300003D122F44074CA6822434C6922F0800226
:101C4000224302608A68C2620A688262984201D1B5
:101C50000969016301214161F0BD000000000140FC
:101C60000004004000080040000C0040004001401B
:101C7000004401400048014010B5846842EA032254
:101C800024F47F440A432243826010BD826822F01C
:101C900070020A4342F00701816070470D4940F825
:101CA000781F0D4941600D4981600D49C1600D49A2
:101CB00001610D4941610D4981610D49C1610D49C4
:101CC00001620D4941620D4981620D49C1620D49B0
:101CD00001637047391700083B1700083D170008DB
:101CE0003F170008B3150008B515000833170008A2
:101CF0003517000837170008B1150008C90F00088C
:101D0000CB0F0008C70F000810B5036A046A24F05F
:101D100001040462846924F0F00444EA021423F00C
:101D20000A020A438461026210BD10B5036A23F0FF
:101D3000100303628369046A23F4704343EA0232A6
:101D400024F0A00343EA01118261016210BD10B5C5
:101D5000806B0021C185C184FFF7F2FC10BD0168D2
:101D6000CA6822F49072CA6001684A6922F00102CE
:101D70004A61202180F83A10704710B590F83A1067
:101D8000222901D0022010BD8168B1F5805F11D0F9
:101D90000169002901681FD0496801F07F03816A49
:101DA0004A1C82620B70C18D491E0904090CC18551
:101DB00018D02BE00269816A002A0268526805D0B7
:101DC000D2B20A80816A491C8162ECE7C2F3080240
:101DD0000A80816A891CF7E74A68816A4B1C836222
:101DE0000A70E0E70168CA6822F02002CA60016850
:101DF000CA6822F48072CA6001684A6922F001024E
:101E00004A61202180F83A10FFF7F4FD002010BD50
:101E10002DE9F04104464068BC49884204D940F6A7
:101E2000E531BBA000F0EEF9E06838B1B0F5005F35
:101E300004D040F6E631B6A000F0E4F9206950B1D4
:101E4000B0F5806F07D0B0F5C06F04D040F6E73131
:101E5000AFA000F0D7F960694FF6F371084200D1E6
:101E600020B940F6E831AAA000F0CCF92068016959
:101E7000E26821F44051114301612169A068E269DF
:101E800008436169114308432168CA6849F20C6339
:101E90009A430243CA6020684169A26921F44071F3
:101EA00011434161E2696425B2F5004FA748A84992
:101EB00022684FF032083FD08A4201D082427CD162
:101EC000FEF7FCFD00EBC00101EB0010616889002A
:101ED000B0FBF1F6FEF7F2FD00EBC00101EB0010E4
:101EE00061688900B0FBF1F0B0FBF5F06FF018010C
:101EF000484306EB800108EB0110B0FBF5F000F061
:101F0000F006FEF7DBFD00EBC00101EB001061689D
:101F10008900B0FBF1F0B0FBF5F006EB0016FEF720
:101F2000CDFD00EBC00101EB001061688900B0FB42
:101F3000F1F7FEF7C3FDD2E08A4201D082423DD1E3
:101F4000FEF7BCFD00EBC00101EB00106168490029
:101F5000B0FBF1F0B0FBF5F00601FEF7AFFD00EBD2
:101F6000C00101EB001061684900B0FBF1F7FEF71A
:101F7000A5FD00EBC00101EB001061684900B0FB5A
:101F8000F1F0B0FBF5F06FF01801484307EB80016A
:101F900008EBC100B0FBF5F000F0F80006EB4006DE
:101FA000FEF78CFD00EBC00101EB001061684900F9
:101FB000B0FBF1F7FEF782FD3CE055E0FEF76EFD69
:101FC00000EBC00101EB001061684900B0FBF1F0CB
:101FD000B0FBF5F00601FEF761FD00EBC00101EB7F
:101FE000001061684900B0FBF1F7FEF757FD00EB08
:101FF000C00101EB001061684900B0FBF1F0B0FBDB
:10200000F5F06FF01801484307EB800108EBC100C1
:10201000B0FBF5F000F0F80006EB4006FEF73EFDE1
:1020200000EBC00101EB001061684900B0FBF1F763
:10203000FEF734FD00EBC00101EB001061684900C0
:10204000B0FBF1F0B0FBF5F06FF01801484307EB7F
:10205000800108EBC100B0FBF5F000F0070021683B
:1020600030448860BDE8F081FEF718FD00EBC00148
:1020700001EB001061688900B0FBF1F6FEF70EFD80
:1020800000EBC00101EB001061688900B0FBF1F0CA
:10209000B0FBF5F06FF01801484306EB800108EB48
:1020A0000110B0FBF5F000F0F006FEF7F7FC00EBD6
:1020B000C00101EB001061688900B0FBF1F0B0FBDA
:1020C000F5F006EB0016FEF7E9FC00EBC00101EBB2
:1020D000001061688900B0FBF1F7FEF7DFFC00EB50
:1020E000C00101EB001061688900B0FBF1F0B0FBAA
:1020F000F5F06FF01801484307EB800108EB011081
:10210000B0FBF5F000F00F00A9E70000A037A00039
:102110002E2E2F447269766572732F53544D3332CD
:10212000463478785F48414C5F4472697665722F17
:102130005372632F73746D3332663478785F6861DD
:102140006C5F756172742E63000000000014014022
:102150000010014090F83910212901D00220704769
:102160008168B1F5805F016A0BD04A1C0262026887
:1021700009785160C18C491E0904090CC1840ED034
:1021800017E009880268C1F308015160016900295C
:10219000016A02D0491C0162ECE7891CFBE7016877
:1021A000CA6822F08002CA600068C16841F040013C
:1021B000C1600020704700000148FFF7C3BA00006B
:1021C000BC000020FEE70907090E002804DB00F12F
:1021D000E02080F80014704700F00F0000F1E020CC
:1021E00080F8141D704702E008C8121F08C1002AB9
:1021F000FAD170477047002001E001C1121F002A88
:10220000FBD1704770470000FEF70EFAFFF776FC2F
:10221000FFF7F4FBFFF728FCFFF756FC03480068C4
:10222000016841F001010160FEE70000100000209C
:102230000000000000000000010203040607080976
:1022400000000000010203046822000800000020D2
:1022500010000000E621000878220008100000208D
:10226000F0040000F621000801000000100000004A
:08227000000000000024F4004E
:040000050800019559
:00000001FF
