:020000040800F2
:10000000B81A00209D01000835040008EB03000821
:10001000ED0300085B030008F9270008000000005A
:100020000000000000000000000000006926000839
:10003000E903000800000000F1020008F5120008C2
:10004000D7010008D7010008D7010008D701000830
:10005000D7010008D7010008D7010008D701000820
:10006000D7010008D7010008D7010008D701000810
:10007000D7010008D7010008D7010008D701000800
:10008000D7010008D7010008D7010008D7010008F0
:10009000D7010008D7010008D7010008D7010008E0
:1000A000D7010008D7010008D7010008D7010008D0
:1000B000D7010008D7010008D7010008D7010008C0
:1000C000D7010008D7010008D7010008D7010008B0
:1000D000D70100087D270008D7010008D7010008D4
:1000E000D7010008D7010008D7010008D701000890
:1000F000D7010008D7010008D7010008D701000880
:10010000D7010008D7010008D7010008D70100086F
:10011000D7010008D7010008D7010008D70100085F
:10012000D7010008D7010008D7010008D70100084F
:10013000D7010008D7010008D7010008D70100083F
:10014000D7010008D7010008D7010008D70100082F
:10015000D7010008D7010008D7010008D70100081F
:10016000D7010008D7010008D7010008D70100080F
:10017000D7010008D7010008D7010008D7010008FF
:10018000D7010008D7010008DFF80CD000F046F8CE
:10019000004800476D280008B81A0020DFF8380032
:1001A000016841F470010160BFF34F8FDFF82C004C
:1001B000016821F040410160BFF36F8F084880471C
:1001C00008480047FEE7FEE7FEE7FEE7FEE7FEE73A
:1001D000FEE7FEE7FEE7FEE788ED00E034EF00E033
:1001E000212700088901000872B6704762B670477F
:1001F000EFF3108072B6704780F31088704730BFFD
:10020000704720BF7047B0FA80F0704790FAA0F0B6
:10021000B0FA80F0704790FAA0F07047064C074D96
:1002200006E0E06840F0010394E8070098471034C6
:10023000AC42F6D3FFF7ACFFA0290008C0290008A4
:10024000EFF3098141B1F1EE101A40F8041D20EDE1
:10025000200A3B490A6810607047B0EC200A02C8C7
:10026000E1EE101A37490A681060704772B64EF610
:100270002250CEF2000040F2FF01C0F200010170F6
:1002800040F2E000C2F20000016881F3088840F209
:100290005A00C2F2000040F25B01C2F200010A788B
:1002A000027040F2D805C2F2000540F2DC01C2F251
:1002B00000010A682A60106880F30988EFF314804F
:1002C00040F0020080F31488BFF36F8FBDE8F00F99
:1002D0000FBCBDE8005006BC62B608471A484FF094
:1002E00080510160704718484FF08051016070479D
:1002F00072B6EFF3098020E9F00F40F2D805C2F2A0
:1003000000052E683060744600F054FF40F25A0039
:10031000C2F2000040F25B01C2F200010A780270F2
:1003200040F2DC01C2F200010A682A6044F0F40ED7
:100330001068B0E8F00F80F3098862B670470000DB
:10034000D8000020DC00002004ED00E01FB5684666
:1003500002F038F9019804B010BDFEE710B500F0C6
:1003600017F8BDE8104000F011B8000010B5FFF715
:100370003FFF04461021044800F039F82046BDE84C
:100380001040FFF739BF0000EC000020FFF7EEBF80
:1003900002490020086000F009B8000014000020A5
:1003A00001490860704700001400002010B5FFF7F5
:1003B000CDFF08490A6842F080720A6006490022AF
:1003C0004A600A6842F001020A60BDE81040FFF787
:1003D000E7BF0000FCED00E0001000E001484068CD
:1003E00070470000001000E07047FEE7FEE70A4695
:1003F0000021AFF3008010B5002300241B020B4343
:10040000641C042CFAD300F0030424B909E000F8BA
:10041000011B521E641C22B1042CF8D301E008C059
:10042000121F042AFBD202E000F8011B521E002A10
:10043000FAD110BD7047704702480068002800D00C
:10044000004770472C00002010B5044600F0AAF8C1
:100450003F48002202703F4802703F4802703F4808
:1004600002603F4802603F4802703F4802703F48C8
:1004700002703F4802603F4802603F4802603F49C7
:10048000086840B13E48006828B1096801E0491E8B
:1004900004C00029FBD13B4802603B4802603B4856
:1004A00002603B4802603B4802603B4802603B48B8
:1004B00002603B48027001F0C7F901F0FDF92046E7
:1004C00000F02CFF2088002841D1204600F07AFF60
:1004D000208800283BD1204600F080FF208800289B
:1004E00035D1204601F032F8208800282FD120464F
:1004F00001F0D6F92088002829D1204601F096FA8B
:100500002088002823D1204601F0AAFC208800285A
:100510001DD1204600F022FF2088002817D1204658
:1005200001F0E8FE2088002811D1204601F08EFB62
:10053000208800280BD1204601F038FF20880028B1
:1005400005D100F0E9FEBDE81040FFF774BF10BD13
:10055000400000204100002074000020D80000204E
:10056000DC0000205A0000205B0000205C0000201E
:10057000680000206C000020700000205429000852
:10058000502900082000002024000020280000201E
:100590002C00002030000020340000203800002013
:1005A000A2000020054806490068096800EB8100A8
:1005B000044920F007000860704700005029000837
:1005C00054290008E000002010B5224800780128D6
:1005D0003ED1FFF70DFE04461F49087840B1401E8A
:1005E000C0B2087048B12046BDE81040FFF704BE15
:1005F0002046BDE81040FFF7FFBD1848007820B145
:100600002046BDE81040FFF7F7BD01F00BF9144993
:100610000870144900EB400051F8200012490860AE
:1006200012490968884204D12046BDE81040FFF70E
:10063000E3BD50F88C1F491C01600D480168491C3E
:100640000160FFF750FE2046BDE81040FFF7D4BD23
:1006500010BD000041000020400000207400002078
:100660005B000020480F0020DC000020D8000020A4
:10067000980000202DE9F04104460D461646002C56
:100680001CD0FFF7B5FD07460E48206065600025C9
:100690002562656284F82850E56204F1080000F0E4
:1006A000F1FF204600F0F4FE07490888401C08804E
:1006B0003846FFF7A1FD3580BDE8F08145F6C3500F
:1006C0003080F9E74D555458580000202DE9F04F7F
:1006D00089B00646129D8B4690461C46002E0BD0D4
:1006E000B8F1000F0CD0B8F5004F09D045F62560E1
:1006F000288009B0BDE8F08F45F6C3502880F8E7A0
:1007000045493068884203D045F6C4502880F0E758
:10071000002704B12760FFF76BFD814696F828108B
:10072000DFF8F8A089B1706ADAF8002090421FD192
:10073000491C86F828100CB1F06A20604846FFF783
:100740005BFD45F282702880D3E7DAF80000706222
:10075000012086F828000CB1F06A20603146DAF8F2
:10076000000000F0A7FE4846FFF746FD2F80C0E7D7
:100770005FEA084106D54846FFF73EFD46F2B01055
:100780002880B6E72649097831B14846FFF734FD9D
:1007900046F663502880ACE790F8373092F837106F
:1007A0008B4201D901F0CAFA5B460422314601A806
:1007B00000F0D8FE4846FFF71FFD00F0D3F8FFF722
:1007C00017FDDAF8002092F8351059B101290ED042
:1007D000022919D0032911D046F62E612980FFF78E
:1007E0000BFD86E70CB1916C21602F80F7E70CB10F
:1007F000916C216046F2A9112980F0E704B12760CD
:1008000047F2D9212980EAE70CB1916C216045F6C5
:10081000C2512980E3E700004D555458D80000200C
:10082000740000202DE9F84F044689461546002C37
:100830000AD0B9F1000F0BD0B9F5004F08D045F63A
:1008400025602880BDE8F88F45F6C3502880F9E779
:1008500041492068884203D045F6C4502880F1E71A
:10086000FFF7C6FC8246DFF8F4B0606ADBF80010E0
:10087000884206D05046FFF7BFFC45F281702880C1
:10088000E0E7FFF7ABFD8046C4F82C8094F8280021
:10089000401EC0B284F8280030B15046FFF7ACFCCF
:1008A00045F283702880CDE72146DBF8000000F098
:1008B00041FE04F108073889F0B3DBF8000090F836
:1008C000371090F8382091421DD000F022FEDBF85E
:1008D000001091F83820824200D21046064691F866
:1008E0003700B0420FD2084601F04AF8DBF80000AA
:1008F00080F83760304600F0B3FFDBF8000001F00D
:1009000023F817480670386886686662012084F804
:1009100028002146304600F0CDFD00231A4631461E
:100920002046CDF8008000F010FF5046FFF764FC31
:100930005FEA094003D400E004E000F013F800206F
:1009400028807FE70026666284F828605046FFF71B
:1009500053FC2E8076E700004D555458D8000020F7
:100960005A00002010B517480078002829D11648F1
:100970000078002825D1FFF73BFC044600F052FF29
:1009800012490870124900EB400051F8200011494B
:10099000086011490968884204D12046BDE810402A
:1009A000FFF72ABC50F88C1F491C01600B480168F6
:1009B000491C0160FFF792FC2046FFF71DFCBFF3C6
:1009C0006F8F10BD40000020740000205B000020ED
:1009D000480F0020DC000020D800002098000020F4
:1009E00070B504460E480078012803D045F68960AA
:1009F000208070BD0B4D2878FA2803D345F20920DA
:100A0000208070BDFFF7F4FB06462878401C287054
:100A100000F0E0FF3046FFF7EFFB0020208070BDC4
:100A2000410000207400002070B50446134800788F
:100A3000012803D045F68960208070BD104E3078C3
:100A400070B1FFF7D5FB05463078401EC0B230705C
:100A500050B12846FFF7D0FB46F66350208070BDAA
:100A600046F66450208070BD00F0C2FF2846FFF7B4
:100A7000C3FBFFF777FF0020208070BD41000020FE
:100A80007400002070B504460F4D2878002803D06C
:100A900045F68A60208070BD00F0C4FE0B490870E6
:100AA0000B4908700B4900EB400051F820000A493F
:100AB00008600A49086001202870FFF7D7FB43F659
:100AC0009920208070BD0000410000205B000020C4
:100AD0005A000020480F0020DC000020D800002031
:100AE0002DE9F0410646FFF783FB234900250D80E1
:100AF00022490D6022490D6022490D6022490D6096
:100B000022490D81FFF778FBFFF772FB20490C6843
:100B1000FFF772FB17E0FFF76BFB07467434E563E2
:100B200025602563A561A582E5826562A562FFF760
:100B300055FC2062743C2046A0F86C50D4F8B840B4
:100B40003846FFF759FB002CE5D1FFF751FB11495F
:100B50000C68FFF751FB06E0FFF74AFB21468D8545
:100B6000A469FFF749FB002CF6D101F0F0FA01F07F
:100B7000B9FC3580BDE8F08182000020940000209F
:100B8000A8000020C80000206C0000203C0F0020BE
:100B90009C0000206000002002480068002800D06F
:100BA00000477047300000202DE9FF4F83B0044616
:100BB000DDE91795DDE91087139E9346002C0DD0D3
:100BC000BBF1000F0ED08FB149480068864211D2A8
:100BD00046F63060288007B0BDE8F08F47F2AD10D0
:100BE0002880F8E747F24F102880F4E746F62F6098
:100BF0002880F0E71298B04203D346F6316028808F
:100C0000E9E746F27320B8F1400F01D32880E2E70C
:100C1000B8F13F0F04D137498C4201D02880DAE780
:100C2000204601F02DF94FF0000AA5F800A05FEA78
:100C3000C9700BD05FEA897008D53846002103E0FF
:100C4000C0F800A0001D491CB142F9D3129807EB6F
:100C50008005CDE900692B463A465846069900F0D2
:100C6000F1F9C4F828B00699E1620499216284F888
:100C7000378084F838802060A560169860606762CD
:100C80002664A4F84490002004EB8001C1F878A009
:100C9000401CC0B20028F7D004F16000149900F0A5
:100CA000EFFB204600F02CF8FFF7A2FA054694F877
:100CB000370000F0D5FD204600F046FE204601F04A
:100CC0009DF80D490888401C08800C4800780128D0
:100CD00005D007B02846BDE8F04FFFF78DBA28468B
:100CE000FFF78AFA07B0BDE8F04FFFF73BBE000000
:100CF000742900087C0E0020A00000204100002084
:100D000002490968002900D00847704720000020E8
:100D10002DE9F04704460F464448844204D147F287
:100D20004C103880BDE8F0872CB9FFF761FA4049D4
:100D30000C68FFF761FAFFF75BFA814694F836001A
:100D40004FF0000808286AD2DFE800F004080C0C15
:100D500047080C0C204600F013FE3EE0204601F050
:100D6000CDF93AE094F8340007282DD2DFE800F0FE
:100D70002C042C0408040400204600F0B6FC23E0F8
:100D8000206BC068456A15F8376F204600F0ADFC4F
:100D900028786978373D88420CD094F8371088421B
:100DA00008D1284600F0B5FB95F83810814200D2F2
:100DB0000846064684F8348095F83700B04203D0E0
:100DC0003146284600F0BAFF94F83600032801D0D7
:100DD000072802D1204601F091F9E06B10B12046BE
:100DE00000F06CFB04F1600000F02EFB204600F0E8
:100DF00023F8204601F014F80E490888401E0880A8
:100E0000204601F03DF8FF2084F836004846FFF701
:100E1000F3F9A7F80080BDE8F047FFF7A3BD484607
:100E2000FFF7EAF946F62D6038807BE77C0E00205C
:100E3000D8000020A000002002490968002900D045
:100E4000084770472400002002490968002900D0A3
:100E500008477047280000202DE9F05F83468A4646
:100E600014461D46BAF1000F08D0BAF5004F05D060
:100E700045F6256028800020BDE8F09F002604B1DB
:100E80002660FFF7B5F981463B4F3868D0F84C80B3
:100E9000B8F1000F1AD0A8F10108C0F84C800CB1CD
:100EA000806C2060FFF79AFA01463868826C891AD4
:100EB000C0F8A010D0F8A4208A4201D2C0F8A41033
:100EC0004846FFF799F92E804046D5E75FEA0A4089
:100ED00007D54846FFF790F946F2B0102880002069
:100EE000CAE72648007838B14846FFF785F946F644
:100EF000635028800020BFE700215B460722084698
:100F000000F030FB4846FFF777F9FFF72BFDFFF7BE
:100F10006FF98046396891F8350068B101281ED014
:100F2000032823D046F62E6028803868C46C4046DB
:100F3000FFF762F920469FE77CB1886C2060FFF7DD
:100F40004DFA01463868826C891AC0F8A010D0F8B2
:100F5000A4208A4201D2C0F8A4102E80E5E70CB18B
:100F6000886C206046F2A9102880DEE704B1266074
:100F700047F2D9202880D8E7D8000020740000204C
:100F800070B506460C461546002C07D0B4F5004F48
:100F900004D045F625602880002070BDFFF71EFABA
:100FA00002462B4621463046BDE8704000F0C8BFDF
:100FB0002DE9F0470646884691461F4646F2D52061
:100FC000B8F1000F06D0B9F1000F06D0FFF710F905
:100FD0002EB106E03880BDE8F0873880FBE718497D
:100FE0000E684FF0000A316841B196F84410C90705
:100FF0000ED0FFF701F90024756A15E0FFF7FCF841
:10100000C8F800A0C9F800A047F252103880E2E703
:10101000FFF7F2F8C8F800A0C9F800A047F2541092
:101020003880D8E72D1D641C28680028FAD0C8F83D
:101030000040306C001BC9F80000A7F800A0CAE708
:10104000D800002030B5DDE9035402EB850222F020
:1010500007022C3A4FF08075956250623A48106250
:101060004FF01230D0614FF0033090614FF00230FA
:1010700050611361D1604FF0113090604FF010302B
:1010800050604FF0093042F804094FF0083010600A
:10109000101F4FF0073101604FF0063140F8041C7B
:1010A0004FF0053140F8081C0C384FF00431016056
:1010B000610747D569008038C167244981672449A1
:1010C0004167244901672449C1662449816624494E
:1010D0004166244901662449C16524498165244942
:1010E0004165244901652449C16424498164244936
:1010F0004164244901644FF08341C1632249816303
:1011000022494163224901632249C1622249816225
:1011100022494162224901624FF08241C161214965
:10112000816121494161214901614FF08141C160E3
:101130001F498160090241604FF07E5140F8041957
:101140000021016030BD0000291F00080000F841A7
:101150000000F0410000E8410000E0410000D841FB
:101160000000D0410000C8410000C0410000B8416B
:101170000000B0410000A8410000A04100009841DB
:101180000000904100008841000070410000604173
:10119000000050410000404100003041000020416B
:1011A000000010410000E0400000C0400000A040EE
:1011B0000000404070B5184D286890F84410490769
:1011C00002D50068FFF73CF8144C206890F84410F2
:1011D000490702D50068FFF740F81148006800B1E0
:1011E0008047FFF7FBF829682368994207D09031C0
:1011F0004A68821A0A608C6822448A609039C3F86F
:101200009400084AD1F8B0301068834201D2C1F886
:10121000B0000020106070BDD8000020DC0000206D
:1012200034000020700000202DE9F04106460D46F4
:1012300014461A480078002804D046F663502080EF
:10124000BDE8F0814DB1022D07D0042D06D0082D48
:1012500003D045F625602080F2E786B1FEF7C8FF8F
:1012600007462A460E4D23463146286800F000FF07
:10127000208840B13846BDE8F041FEF7BDBF47F2D7
:101280007E202080DCE7286800F07AFB3846FEF7F5
:10129000B3FFFFF767FB00202080D1E77400002038
:1012A000D800002008B500F01DF86A460021094862
:1012B000FFF766FE08490868401E0860002807D14D
:1012C0000648006808606A4600210548FFF758FE96
:1012D00008BD000008130020D4000020D00000202A
:1012E000F813002002480068002800D0004770472B
:1012F0003800002010B5FEF77BFF064A1178491C24
:101300001170FEF779FFFFF7CDFFBDE81040FFF742
:101310005BB900004000002070470000034A002134
:101320001160034A118001807047000044000020D2
:1013300048000020074C084DFEF75AFF2168491C61
:1013400021602968491C2960FEF756FFFFF774F8F1
:10135000F2E700003C0000208400002000B589B0C6
:101360000D4A002111600B22CDE9061208900C4AAB
:1013700005910A480B4B126800681B68CDE90132E1
:10138000CDE903013F2000900023074A07A10C4844
:10139000FFF70AFC09B000BD3C0000204C29000802
:1013A00048290008442900083513000875432F4FC9
:1013B000532D4949492049646C65205461736B0081
:1013C0007C0E0020034A00211160034A1180018035
:1013D000704700004C00002050000020F0B5174E70
:1013E000316800290BD0164F398861B131683268F5
:1013F00010323B885B1E9DB2002300240FE045F2B3
:101400001E710180F0BD45F21D710180F0BD0A60C2
:101410004C600C81CC60103110325B1C9BB2AB4233
:10142000F5D30C604C600C81CC60064932680A60D0
:101430003A888A80CC800C810480F0BD5C29000849
:10144000582900083C0F002010B54289002A12D00C
:1014500003680A490C681C6043680B60CB884489A8
:101460001B1BCB808B88448923448B8000214181C6
:10147000818101604160104610BD00003C0F0020DA
:10148000018100214181818101604160704700003C
:1014900006A1C16100224261054B1968002903D0F1
:1014A00081614861186070478261FBE7200000009D
:1014B00054000020C26B0A62C1637047F8B507464A
:1014C000FC6B1EE0256AFEF789FF0346E3622146B6
:1014D000384600F02FF804F108000189A1B1006836
:1014E00086686762012084F8280021463046FFF7AD
:1014F000E1FF009300231A463146204600F025F90B
:101500002C46002CDED1F8BD002084F82800606253
:10151000F6E73F213C3008E082682AB1926892F8F1
:1015200037208A4200D21146203000680028F3D1CB
:10153000084670473C3001E002F1200002688A4210
:10154000FAD10168096A016070470000034A00216E
:101550001160034A11800180704700005400002090
:10156000580000202DE9F0410C4607461946104D61
:10157000286880F83420002680F8356000F0C6FB2B
:1015800064B104F10806FC6001223946286800F0C5
:1015900011F83946304600F07AF803E02868A0F8E0
:1015A0004660066320462968BDE8F04100F016B8A1
:1015B000D800002010B5A0F84620016300240023C5
:1015C00009E04B600B600B614B610B83CB61886062
:1015D0002031641CA4B29442F3D310BD002809D07A
:1015E0004268C1F8BC2000F1080109688968096AED
:1015F000C161704791F83400022805D0072807D050
:1016000005A0C1F8BC00704704A0C1F8BC00704739
:1016100004A0C1F8BC007047200000005461736B47
:10162000205100005461736B2053656D0000000071
:1016300007A2C1F8BC2000F108010968002903D005
:101640008968096AC161704701A1C16170470000E2
:101650002000000070B5056BB0F846400FE0EE6862
:1016600008363089012807D92946304600F052F85B
:101670002946304600F00BF82035641EA4B2002C39
:10168000EDD170BD0021016041600181704730B52E
:101690008A6892F8374002890025002A03D0521C3C
:1016A000028102680CE0012202814D600D60016040
:1016B000416030BD936893F83730A34202D8526836
:1016C000002AF7D132B1136853B10B604A605960F8
:1016D000116030BD4D6042680A605160416030BDAC
:1016E00011600D604A60016030BD70B50646356B13
:1016F000B6F8464007E0E8680830294600F00AF8E6
:101700002035641EA4B2002CF5D10020A6F84600B6
:10171000306370BD10B502890024012A0BD00A681D
:1017200062B14B6873B153601A600289521E028124
:101730004C600C6010BD04604460F6E74A681460B9
:101740000260F2E754604260EFE7F8B5064606989B
:101750000C46002594F8361008292AD2DFE801F05B
:101760002929040429292A2A94F83410032910D09D
:10177000A265A4F85C30A06436B12046FFF7B5FF3F
:1017800021463046FFF754FF94F83600032806D070
:1017900008E000902146304600F030F8ECE72046A3
:1017A00000F0ACFC204600F099F83434A570657068
:1017B0002570F8BD94F83410032910D0A265A4F860
:1017C0005C30A06436B12046FFF78FFF21463046DB
:1017D000FFF72EFF94F83600072806D008E00090A7
:1017E0002146304600F00AF8ECE7204600F086FC7F
:1017F00004203434A07065702570F8BD70B5049D68
:101800000C6BB1F846100AE0E668864204D120610C
:1018100062612383E56170BD2034491E89B20029CD
:10182000F2D170BD10B50024064802E02034E4B2C5
:10183000001D01680029F9D00068FEF7E4FC20448F
:10184000C0B210BD180000200020044A002142F858
:101850002010401C0228FAD3704700001800002016
:10186000410900F01F020120C2F11F029040034B0A
:1018700053F82120024343F821207047180000202C
:10188000410900F01F020120C2F11F029040034BEA
:1018900053F82120824343F821207047180000208C
:1018A000034A00211160034A118001807047000043
:1018B00060000020640000200020074B002200EBA5
:1018C000400103EB81010A810A604A60401CC0B2FA
:1018D0004028F4D370470000480F002010B504469C
:1018E00094F83700FFF7BCFF074994F837000978F0
:1018F000884204D12046BDE8104000F025B82046BB
:10190000BDE8104000F002B85A00002090F83710EF
:101910000C4A01EB410102EB810100230A89002AF4
:1019200008D0521C0A810A68C26003610A6810610B
:101930000860704701220A81C36003610860486043
:1019400070470000480F002090F837100B4A01EB59
:10195000410102EB810100230A89002A07D0521CB1
:101960000A81C3604A680261D06048607047012202
:101970000A81C3600361086048607047480F002017
:1019800070B50446124994F8370000EB400001EBB3
:1019900080012069E2680025002808D00B895B1EC1
:1019A0000B81C26092B110612561E56070BD2AB102
:1019B0000889401E088115610A60F5E70D810D60F8
:1019C0004D6094F83700FFF75BFFEDE74860EBE709
:1019D000480F002010B504480078012803D1FEF715
:1019E000FDFC0249086010BD740000206800002062
:1019F00010B50A48007800280ED1FEF7EFFC084920
:101A00000968401A07490A68824200D208600649FC
:101A10000A68824200D2086010BD000074000020F5
:101A2000680000206C00002070000020034A0021A4
:101A30001160034A11800180704700007800002087
:101A40007C0000201CB5724E724D3068440004E0EA
:101A5000204601AA0021FFF7E7FB28780128F7D1EB
:101A600001A8FFF73DF84FF0000A6B4832680168A3
:101A7000914203D901683268B1FBF2FABAF1000F62
:101A800003D100680A21B0FBF1FADFF890B14FF4FE
:101A90007A7842F210764FF00009A4E06048824262
:101AA00002D23046012113E05E48824202D2404613
:101AB0000A210DE05C48824202D26420642107E0E2
:101AC0005A48824202D20A20414601E001203146B2
:101AD000B2FBF1F15843B0FBF1F0301A80B2ABF831
:101AE000000053490A88824203D2088001E0ABF823
:101AF0000060FFF751F80027FEF77AFB4D4C256890
:101B0000FEF77AFB0FE0FEF773FB55F8981F69604C
:101B1000C5F80090FEF770FB68680744FEF768FBA5
:101B20002D6AFEF769FB002DEDD1E7B13C488742F5
:101B300002D23546012013E03A48874202D2454698
:101B40000A200DE03848874202D26425642007E06D
:101B50003648874202D20A25404601E00125304638
:101B6000B7FBF0F701E000250127FEF741FB2468F1
:101B7000FEF742FB1DE0D4F89C006843B0FBF7F091
:101B800080B2B04200D93046A4F88800B4F88A1078
:101B9000814201D2A4F88A0004F1A80201AB111D10
:101BA0002046FFF705FAFEF723FBD4F8B840FEF70E
:101BB00023FB002CDFD120480178012904D180F8D3
:101BC000009001A8FEF78CFFFEF708FC0146009884
:101BD000081A1A490A68824200D2086001AA002144
:101BE0005046FFF721FBFEF7F9FB0090FEF700FBE4
:101BF0001349144C0A682260C1F80090FEF7FCFA01
:101C00001148236802689A427FF671AF46E70000E8
:101C10006429000890000020782900088000002036
:101C2000801A060000093D00005A62020084D7179E
:101C3000820000209C0000207E00002094000020F4
:101C4000840000208C0000208800002030B589B07E
:101C50001D4A002111601D4A11601D4A11601D4A74
:101C600011701D4A11701D4A1368002B0AD01C4CBC
:101C70001C4D23682D68AB4208D246F62C610180CA
:101C800009B030BD46F62B610180F9E7164B1D788F
:101C90003F2D03D346F62A610180F1E70325CDE904
:101CA0000615089005911148246812680068CDE96E
:101CB0000341CDE901201878009000230C4A0DA1C2
:101CC0001148FEF771FFDBE7840000208C00002044
:101CD00088000020900000207E0000206829000875
:101CE0007029000874290008602900086C29000880
:101CF000451A000875432F4F532D49494920537405
:101D00006174205461736B004812002010B50446C2
:101D1000002908D00A462146074800F06DF9032043
:101D200084F8360002E0022084F836002046BDE840
:101D30001040FFF725BE0000B40000202DE9F0415F
:101D400004460E46002594F8377094F836000828AB
:101D50004FD2DFE800F004181B1B18181B1B20468D
:101D6000FFF70EFE84F837603046FFF779FD224812
:101D70000068844203D12046FFF7C8FD36E02046C4
:101D8000FFF7E2FD32E084F837602FE084F8376037
:101D900094F83400072829D2DFE800F0280428044A
:101DA000080404002046FFF755FC1FE02046FFF71B
:101DB00051FC206BC068456AB74205D995F83700D9
:101DC000B04213D8002511E095F83700B8420DD184
:101DD0002846FFF79EFB95F83810814200D208464E
:101DE000064695F83700B04200D100252C46002C5D
:101DF000A8D1BDE8F0810000D80000200023C0F881
:101E0000B430064A1168002905D0C0F8B810C1F8EE
:101E1000B40010607047C0F8B830FAE79C000020AA
:101E2000D0F8B420D0F8B8100023002A08D079B137
:101E3000C2F8B810C1F8B420B430436003607047F2
:101E4000064A116009B1C1F8B430C0F8B830704723
:101E5000C2F8B830C0F8B430704700009C000020D1
:101E6000044A00211160044A1180044A1160018073
:101E7000704700009C000020A00000209800002077
:101E800070B5044600252560A5606560E5602561A4
:101E90006561A561E56121A020626562A562E562D8
:101EA000A564A565A4F85C50002104F16000FFF76B
:101EB000E7FA25676567E567A4F88450C4F88050A1
:101EC000002004EB80018D67401CC0B20028F8D0D0
:101ED0003434A561E5662567E56084F85250A5674E
:101EE00065672582E5612562A4F85450A4F8565030
:101EF000A565E565FEF772FA20666566E5672570FB
:101F00006570A5704020E0702071A560C4F8805015
:101F1000C4F8845003A0C4F8880070BD3F546173B6
:101F20006B0000002000000008B504480068FEF7C0
:101F30008BFF69460020FEF7EBFE08BDD8000020AD
:101F40002DE9F8430446894615461E46FEF750F92A
:101F500007460CB927480468A5640020308094F82F
:101F6000360046F6C55808283BD2DFE800F00404E6
:101F7000151504041515E56C681C05D06D1CE56489
:101F80003846FEF739F933E03846FEF735F9A6F85A
:101F900000800020BDE8F88394F83400072808D0BA
:101FA000E56C681C16D06D1CE5643846FEF724F914
:101FB0001EE000231A46214618460095FFF7C5FB90
:101FC000E56C3846FEF718F95FEA094010D4FEF7D1
:101FD000C9FC0DE03846FEF70FF9A6F80080002096
:101FE000D8E73846FEF708F946F62D603080002520
:101FF0002846CFE7D800002030B503680025002B25
:1020000001D01C4629E00A654D618D61C8610160FF
:102010000121818030BD1C6D94421BD39C6964B149
:102020000A658C614B61C8611D6DAA1A1A659961B8
:1020300061618188491C818030BD0A658D614B6179
:10204000C8611C6DA21A1A65996101608188491CDA
:10205000818030BD121B1C465B69002BDBD10A65F9
:102060008C614D61C86161618188491C818030BD8E
:102070002DE9F0411C461F4BDFF8748000271B68D8
:1020800047F27E2C042A04D0082A0BD059B30A4602
:1020900016E0CA1A424500D892B90765A4F800C0F4
:1020A000BDE8F081456D5E1B8E4203D90A46194496
:1020B000416505E08A1B42450BD852B12944416570
:1020C000012180F8361001460B48FFF795FF278065
:1020D000E6E7B6FBF1F201FB0252114441650765E8
:1020E000A4F800C0DCE70765A4F800C0D8E700004A
:1020F0000000FFFFA4000020AC00002030B5C26942
:10210000836941690024002B0ED0596121B18B6194
:102110000B6D056D2B440B6584619188491E918080
:1021200044610465C46130BD61B18C610B6D056DA6
:102130002B440B6511609188491E918044610465B0
:10214000C46130BD146094800465C46130BD7047C3
:102150002DE9F047FEF74CF88146FEF73FF980463F
:102160000026184D2C6804B3206D401E2065002702
:1021700018E0761CB6B294F83600012802D0052883
:1021800006D008E084F836702046FFF7A7FB02E08F
:10219000042084F8360064692C608CB1A888401E45
:1021A000A880A761206D0028E3D0EE80FEF716F925
:1021B000A0EB08044846FEF71FF82046BDE8F0876C
:1021C000AF80F2E7AC0000202DE9F047FEF710F8F1
:1021D0008246FEF703F981460027334E3468E4B3A4
:1021E000206D401E2065B8464DE07F1CBFB2002523
:1021F00094F83400042802D1206BC068456AC4F802
:102200005880A4F85C80FEF7E9F8A0642046FFF748
:102210006CFA94F83600032802D0072806D008E0AC
:102220002046FFF75BFB84F8368002E0042084F848
:102230003600032084F8350084F83480DDB195F849
:10224000370095F83810884215D094F83710884236
:1022500011D12846FFF75DF900E017E095F8381036
:10226000814200D20846014695F83700884202D0E4
:102270002846FFF763FD6469346094B1B088401E5E
:10228000B080C4F81880206D0028AED0F780FEF72B
:10229000A5F8A0EB09045046FDF7AEFF2046BDE8C7
:1022A000F087A6F80480F1E7B400002008B50F4CD1
:1022B0000F4D00226B4611461046FEF7CDFDBDF8CE
:1022C00000000028F5D1FDF793FF2168491C21602B
:1022D000FDF792FFFFF73CFF0646FFF775FF30441E
:1022E00029688142E5D22860E3E70000A4000020CD
:1022F000A800002030B589B01D4A002111601D4A98
:1023000011601D4B19609180D1809980D9801B4B41
:102310001A68002A0AD01A4C1A4D22682D68AA425F
:1023200008D247F21321018009B030BD47F21221D3
:102330000180F9E7144A15783F2D03D347F21121A4
:102340000180F1E70B25CDE906150591089020687D
:102350000E4C1B682468CDE90134CDE903011078E7
:10236000009000230A4A0BA10F48FEF71DFCDBE793
:10237000A4000020AC000020B40000208029000848
:1023800088290008742900087C290008842900088D
:10239000AD22000875432F4F532D494949205469F8
:1023A000636B205461736B000813002030B589B053
:1023B00004462B48002505602A4805602A48058008
:1023C0002A4A2B492B481368002B05D0096812684C
:1023D000B1FBF2F1016004E009680A22B1FBF2F1FD
:1023E00001602549006808602448056024480560AC
:1023F000224624A12748FEF73DF9208800280BD16A
:102400002548016851B1254A254B11681B6899423E
:1024100008D247F24830208009B030BD47F247303B
:102420002080F9E71F490B783F2B03D347F2463052
:102430002080F1E70B23CDE90653059508941A4B4C
:10244000126800681B68CDE90325CDE9010308780F
:1024500000900023154A16A11B48FEF7A5FBDBE7F9
:10246000BC000020C4000020C0000020902900080B
:1024700078290008D0000020D4000020CC000020E3
:10248000C80000204F5320546D72204D757465783C
:1024900000000000C8130020942900089C290008AF
:1024A000742900088C29000898290008E9240008EC
:1024B00075432F4F532D4949492054696D6572204A
:1024C0005461736B00000000F81300200EB502A8E1
:1024D0000022009001AB11460148FEF7F7F80EBD4F
:1024E000C8130020704700001CB51F4EDFF87C8029
:1024F0001F4F002101AB6A460846FEF7ADFCFFF70F
:10250000E5FFFDF76BFF81463068401C3060D8F86E
:10251000004019E001A8FEF763FA2569A069401E92
:10252000A06168B9A08C02281BD0204600F022F8D8
:10253000032084F82600A26812B12046E168904783
:102540002C4601A8FEF770FA002CE3D1FDF746FFF8
:10255000A0EB090400F02CF83868A042C9D23C6016
:10256000C7E7206AA061E6E7CC000020C400002095
:10257000C800002010B50C4A002301691468844289
:1025800003D1116029B14B6103E04269116101B1CE
:102590004A61012180F826100361436103480188E4
:1025A000491E018010BD0000C4000020C0000020B2
:1025B00008B56A4600210248FEF734F908BD00005C
:1025C000C813002070B5244B196801F00C01234C8E
:1025D00000291ED0224E04291DD008291DD00460D8
:1025E000196801F0F00109091E4A545C0168E140D4
:1025F00041601C6804F4E054A40A145D21FA04F458
:1026000084601B6803F460435B0BD25CD140C16003
:1026100070BD0460E4E70660E2E70F4A121F11682C
:10262000C1F38055116801F03F0135B1B6FBF1F1FE
:102630001468C4F38814614305E0B4FBF1F1146835
:10264000C4F3881461431268C2F30142521C520061
:10265000B1FBF2F10160C3E7083802400024F40046
:1026600040787D0100000020704700000CB500227A
:10267000019200922649086840F4803008604FF4C7
:10268000A043086800F4003000900198401C0190BD
:10269000009810B901989842F3D10868800302D5D8
:1026A0000120009000E00092009801282FD11848E6
:1026B0004030026842F0805202601648026842F4DC
:1026C00040420260124808300268026002680260FC
:1026D000026842F480520260031F0F4A1A600A68BF
:1026E00042F080720A600A689201FCD50B4940F200
:1026F00002720A60016821F003010160016841F083
:10270000020101600168C1F381010229FAD10CBD07
:10271000003802400070004019544107003C02405C
:1027200010B51248016841F4700101601048016859
:1027300041F0010101600E4A002108321160026877
:102740000C4B1A400260031D0B4A1A60026822F407
:102750008022026006480C300160FFF787FF0349C2
:102760004FF000608039086010BD000088ED00E087
:1027700000380240FFFFF6FE1030002410B5094C6F
:1027800040F22551204600F00FF8002808D02046DE
:1027900000F02AF8C1B22046BDE8104000F028B889
:1027A00010BD00000010014070B5002440F66A1210
:1027B000C1F3421301F01F05012606FA05F2012BB1
:1027C0000CD0022B0DD0838A1340090A8E4000885A
:1027D00030400BB100B10124204670BD8389134005
:1027E000F3E7038A1340F0E78088C0F308007047DE
:1027F000C1F3080181807047FEE702E008C8121F9C
:1028000008C1002AFAD170477047002001E001C1D9
:10281000121F002AFBD1704710B5002821D0114BA0
:102820000022001F196803E0814203D80A46496864
:102830000029F9D152B11368841A9C4204D100686E
:1028400018441060104602E0506000E0186039B192
:1028500002680B1A934203D10B681A44026049685C
:10286000416010BDE4000020FEE7000070B5BAB082
:10287000FDF774FD1348FDF7E7FD8024A00000F08C
:102880002BF805460F480A23002100880326B4FBD5
:10289000F3F2CDE906160591CDE90224CDE9003524
:1028A000049108900B46084A08A10AA8FEF77CF993
:1028B0000448FEF7E7F82846FFF7AEFF3AB00020DD
:1028C00070BD000010000020692800087461736B5F
:1028D0005F6E616D65000000F0B50B30154D20F0A6
:1028E00007010024144A0FE003688B420BD38B428C
:1028F00005D95E1A43184768C3E9006700E04368DA
:10290000136002C004E0021D10680028ECD12046CC
:10291000002802D1286808B10020F0BD064A074807
:102920001060074A121A22F00702C0E900240120B1
:102930002860D7E7E8000020E4000020BC14002055
:10294000B8160020FC000020060000004000000037
:10295000FC01002064000000640000008C030020E3
:102960000B0000000A000000CC0900200A00000053
:102970006400000040000000E803000001000000C7
:102980005C0B00200A000000640000000B00000047
:102990000A000000EC0C00200A00000064000000A7
:1029A000C029000800000020EC000000FA27000801
:1029B000AC2A0008EC000020CC1900000A2800080E
:1029C00000000000010203040102030406070809D5
:1029D00000000000000000000000000000000000F7
:1029E00000000000000000000000000000000000E7
:1029F00000000000000000000000000000000000D7
:102A000000000000000000000000000000000000C6
:102A100000000000000000000000000000000000B6
:102A200000000000000000000000000000000000A6
:102A30000000000000000000000000000000000096
:102A40000000000000000000000000000000000086
:102A50000000000000000000000000000000000076
:102A60000000000000000000000000000000000066
:102A70000000000000000000000000000000000056
:102A80000000000000000000000000000000000046
:102A90000000000000000000000000000000000036
:0C2AA0000000000000000000000000002A
:040000050800018965
:00000001FF
